:100000000C9400010C94C1270C94E8270C9428014F
:100010000C9428010C9428010C9428010C94380BA2
:100020000C9428010C9428010C9428010C942801AC
:100030000C9428010C9428010C9428010C9428019C
:100040000C94D5210C9428010C941C0D0C944E0D8D
:100050000C9428010C9428010C9428010C9428017C
:100060000C946D070C9428010000000800020100A8
:100070000003040700000000000000000102040863
:100080001020408001020408102001020408102002
:10009000040404040404040402020202020203032E
:1000A00003030303000000002300260029000000D2
:1000B0000000250028002B0000000000240027007D
:1000C0002A00024E414E494E495459494E46CDCC24
:1000D000CC3D0AD7233C17B7D13877CC2B32959536
:1000E000E6241FB14F0A000020410000C842004032
:1000F0001C4620BCBE4CCA1B0E5AAEC59D740040A7
:100100007A10F35A00A0724E18090010A5D4E80026
:1001100000E87648170000E40B54020000CA9A3B3E
:10012000000000E1F50500008096980000004042C4
:100130000F000000A0860100000010270000000052
:10014000E803000000006400000000000A00000056
:1001500000000100000000002C76D888DC674F0802
:1001600023DFC1DFAE59E1B1B796E5E3E453C63A08
:10017000E651997696E8E6C28426EB898C9B62ED7F
:10018000407C6FFCEFBC9C9F40F2BAA56FA5F49039
:10019000055A2AF75C936B6CF9676DC11BFCE0E4B0
:1001A0000D47FEF520E6B500D0ED902E0300943506
:1001B00077050080841E080000204E0A000000C859
:1001C0000C333333330F986E12831141EF8D2114AA
:1001D000893BE65516CFFEE6DB18D1844B381BF77A
:1001E0007C1D901DA4BBE424203284725E22810019
:1001F000C9F124ECA1E53D271A281E285A286528B4
:1002000011241FBECFEFD8E0DEBFCDBF12E0A0E0CB
:10021000B1E0E0EEF6E602C005900D92A23FB10714
:10022000D9F724E0A2EFB2E001C01D92AD3EB207C3
:10023000E1F710E0C0E0D1E004C02197FE010E9488
:100240000829CC3FD107C9F70E944B280C946E3384
:100250000C9400000C94BA2523E0969587952A9576
:10026000E1F7BC01990F880B990B0E94322A20E01C
:1002700030E040E85DE30E94E72A0895CF92DF92E4
:10028000EF92FF920F931F93CF93DF93182F0E944B
:100290001F22C090F302D090F402E090F502F0909B
:1002A000F602DC01CB018C199D09AE09BF09813929
:1002B0009140A105B10540F1E12C01E020EC3FECBB
:1002C0004AE650E06AE070E0812F0E94C4251EBC1F
:1002D00000000DB407FEFDCF0EB51EBC00000DB42E
:1002E00007FEFDCFCEB56AE070E0812F0E9419268F
:1002F000D0E0D02B0E941F226093F3027093F4028F
:100300008093F5029093F602DE3388F081E08093CB
:10031000F2026BE871E083ED93E0DF91CF911F91E2
:100320000F91FF90EF90DF90CF900C946A23C2FD65
:1003300005C01092F8021092F70204C0D093F802A0
:10034000C093F702DF91CF911F910F91FF90EF9033
:10035000DF90CF9008958091F7029091F802089570
:100360008091F2020895833081F028F4813099F071
:100370008230A1F008958730A9F08830B9F0843038
:10038000D1F4809180008F7D03C0809180008F77B1
:1003900080938000089584B58F7702C084B58F7DE7
:1003A00084BD08958091B0008F7703C08091B00024
:1003B0008F7D8093B0000895CF93DF9390E0FC0190
:1003C000E458FF4F2491FC01E057FF4F84918823AC
:1003D00061F190E0880F991FFC01E854FF4FC5912F
:1003E000D491FC01E255FF4FA591B491611109C070
:1003F0009FB7F8948881209582238883EC912E23DF
:100400000BC0623061F49FB7F8943881822F8095D9
:1004100083238883EC912E2B2C939FBF06C08FB72C
:10042000F894E8812E2B28838FBFDF91CF91089518
:100430001F93CF93DF93282F30E0F901E859FF4F46
:100440008491F901E458FF4FD491F901E057FF4F2F
:10045000C491CC23C9F0162F81110E94B301EC2F57
:10046000F0E0EE0FFF1FE255FF4FA591B4918FB75B
:10047000F894111105C09C91ED2FE095E92302C07D
:10048000EC91ED2BEC938FBFDF91CF911F910895ED
:10049000CF93DF93282F30E0F901E859FF4F849183
:1004A000F901E458FF4FD491F901E057FF4FC4918F
:1004B000CC2391F081110E94B301EC2FF0E0EE0FFC
:1004C000FF1FEC55FF4FA591B491EC91ED2381E016
:1004D00090E021F480E002C080E090E0DF91CF91D5
:1004E0000895EF920F931F93CF93DF93182F1092DD
:1004F000F90280E1689FE00111244F7D413439F019
:10050000423411F4D06803C082E08093F9029091E4
:1005100000019F7D9C3411F4D06207C0983411F41F
:10052000DF7D03C083E08093F9028091F90281119D
:1005300001C0D061E12C01E020E03DE241E351E067
:100540006AE070E0812F0E94C4258D2F0E940F2841
:100550008C2F0E940F286AE070E0812FDF91CF91ED
:100560001F910F91EF900C941926CF93C82F1092E2
:10057000F9020E94BA2541E660E08C2F0E947102C8
:1005800042E660E08C2FCF910C94710280930001C1
:1005900008958091000108958091F90208950F93C4
:1005A0001F93CF93DF93EC010E941F226887798706
:1005B0008A879B87E881F9810284F385E02DCE014B
:1005C000099597FF17C00E941F22088519852A8563
:1005D0003B85DC01CB01801B910BA20BB30B0C8183
:1005E0001D812E813F8180179107A207B30710F369
:1005F0008FEF9FEFDF91CF911F910F9108950F9390
:100600001F93CF93DF93EC010E941F2268877987A5
:100610008A879B87E881F9810484F585E02DCE01E6
:10062000099597FF17C00E941F22088519852A8502
:100630003B85DC01CB01801B910BA20BB30B0C8122
:100640001D812E813F8180179107A207B30710F308
:100650008FEF9FEFDF91CF911F910F910895FF9240
:100660000F931F93CF93DF93EC018B01F42ECE01F8
:100670000E94FF029C0197FD0BC08D32910541F055
:10068000C0970A9728F0FF2029F02E32310511F487
:10069000C9011DC001301105C1F00230110569F416
:1006A0002D30310551F034F4295031092230310513
:1006B00020F00BC02032310541F4E881F981028439
:1006C000F385E02DCE010995D2CF8FEF9FEFDF911B
:1006D000CF911F910F91FF900895FC0144835583A2
:1006E0006683778308958F929F92AF92BF92CF9245
:1006F000DF92FF920F931F93CF93DF9300D000D030
:10070000CDB7DEB78C01B42E40E00E942F03FC0170
:1007100097FD4CC020E030E0A901F12CCB2CBB0CA4
:10072000DD08EC15FD05F1F0ED32F105C9F0CF0162
:10073000C0970A97B8F4AAE0B0E00E94DF284F0102
:10074000FF0FAA08BB08DC01CB01880D991DAA1D6B
:10075000BB1D9C01AD01205331094109510902C063
:10076000FF24F394D801ED91FC910284F385E02DF0
:10077000C80129833A834B835C830995C8010E9491
:10078000FF02FC01C09729813A814B815C810A9765
:1007900040F2EC15FD0529F2FF2061F0662777276E
:1007A000CB01621B730B840B950B06C060E070E0FD
:1007B000CB0102C0CA01B9010F900F900F900F90AA
:1007C000DF91CF911F910F91FF90DF90CF90BF905D
:1007D000AF909F908F9008954F925F926F927F920B
:1007E000AF92BF92CF92DF92EF92FF920F931F933F
:1007F000CF93DF935C01042F41E00E942F03FC01A3
:1008000097FD6EC0412C512C80E8682E8FE3782E26
:10081000C12CD12C7601C0E0D0E0002E000C110BD1
:10082000E017F10769F1ED32F10539F1EE32F1052A
:1008300031F1CF01C0970A9718F5AAE0B0E0A701FF
:1008400096010E94DF286F01FF0FEE08FF08C60E19
:10085000D71EE81EF91E80E3C81AD108E108F10886
:10086000CC2371F02DEC3CEC4CEC5DE3C301B20108
:100870000E94E72A2B013C0103C0D1E001C0C1E086
:10088000D501ED91FC910284F385E02DC501099518
:10089000C5010E94FF02FC01C0970A9708F2EE32E0
:1008A000F10519F4CC2309F4BBCFE017F10709F4E3
:1008B000B7CFC701B601DD2339F0909580957095CB
:1008C00061957F4F8F4F9F4FCC2339F00E94322A82
:1008D000A30192010E94E72A06C00E94322A03C0A7
:1008E00060E070E0CB01DF91CF911F910F91FF90FD
:1008F000EF90DF90CF90BF90AF907F906F905F9020
:100900004F900895CF92DF92EF92FF920F931F9333
:10091000CF93DF936C017A018B01C0E0D0E0CE155C
:10092000DF0561F0C6010E94CF0297FF02C07E0181
:1009300005C0F80181938F012196F1CFC701DF91A6
:10094000CF911F910F91FF90EF90DF90CF9008957E
:10095000AF92BF92CF92DF92EF92FF920F931F93CD
:10096000CF93DF9321153105D1F079015C016A0144
:10097000C0E0D0E0062F660F110BC5010E94CF0228
:1009800097FF02C0CE010DC080179107D9F3F60181
:1009900081936F012196CE15DF0579F7F3CF80E0C3
:1009A00090E0DF91CF911F910F91FF90EF90DF903A
:1009B000CF90BF90AF9008950F931F93CF93DF9385
:1009C000EC018B016BEC72E00E941F16C8010E94C3
:1009D000CF0297FD05C0682FCE010E945118F6CFB7
:1009E000CE01DF91CF911F910F910895EF92FF9269
:1009F0000F931F93CF93DF93EC017B01042F6BECDC
:100A000072E00E941F16C7010E94CF02002E000C48
:100A1000110B97FD0BC08017910741F0682FCE0195
:100A20000E945118C7010E94CF02F3CFCE01DF917F
:100A3000CF911F910F91FF90EF9008954F925F9289
:100A40006F927F928F929F92AF92BF92CF92DF92DE
:100A5000EF92FF920F931F93CF93DF938C01EB01E3
:100A600086E0849F4001859F900C1124860E971E7E
:100A7000FB01E815F90508F582819381892B21F1A5
:100A80003696F7CF6081718144815581DB01A40FD7
:100A9000B51F2C91022E000C330B8217930711F512
:100AA0004F5F5F4F55834483228133814217530741
:100AB00059F03696E815F90528F3C8010E94CF02CF
:100AC00097FD46C0FE01F6CFEC1BFD0BF595E795B3
:100AD0002BEA3AEAE29FC001E39F900DF29F900D4E
:100AE000112438C04115510521F3C480D5809601E9
:100AF0002150310935832483DB01A20FB31FAC9150
:100B00000A2E000CBB0B8A179B07F9F4211531053F
:100B1000C9F05B017A01E21AF30AE60EF71E412CD6
:100B2000512CD5016D905D01D7017D907D0167103D
:100B300006C0BFEF4B1A5B0A4216530690F34216EB
:100B4000530699F6D582C482B4CF232B71F6B1CF68
:100B50008FEF9FEFDF91CF911F910F91FF90EF905B
:100B6000DF90CF90BF90AF909F908F907F906F90CD
:100B70005F904F900895CF93DF9300D000D000D0C6
:100B8000CDB7DEB7FE01319626E0DF011D922A9532
:100B9000E9F77A8369835C834B8341E050E0BF01CE
:100BA0000E941E0521E0892B09F020E0822F269665
:100BB0000FB6F894DEBF0FBECDBFDF91CF91089581
:100BC0000C94BB05FB0101900020E9F73197AF01C0
:100BD000461B570B0C94BB05FF920F931F93CF93AB
:100BE000DF93CDB7DEB72C970FB6F894DEBF0FBEFC
:100BF000CDBF2115310521F40E94BB05282F19C056
:100C0000FE013196ACE0FA2EDF011D92FA94E9F76D
:100C10007A8369835C834B8338872F831A8709879C
:100C200042E050E0BF010E941E0521E0892B09F03F
:100C300020E0822F2C960FB6F894DEBF0FBECDBFFA
:100C4000DF91CF911F910F91FF9008950F931F9304
:100C50009A01FA0101900020E9F731978F01041BF6
:100C6000150BFB0101900020E9F73197AF01461BFE
:100C7000570B0E94EC051F910F9108950E94CC2DF7
:100C80000E94CC2D1092670381E08093650310923F
:100C9000640361E082E10E94180261E083E10E9446
:100CA0001802E9EBF0E080818E7F808380818D7F68
:100CB000808388E48093B80085E48093BC00089525
:100CC000ECEBF0E080818A7B808360E082E10E942F
:100CD000180260E083E10C941802880F8093BA0038
:100CE00008959B01AC0160E074E284EF90E00E9403
:100CF0009E28DA01C9014097A109B109B695A795C7
:100D0000979587958093B8000895413208F043C0C5
:100D1000909167039111FCCF91E09093670320932A
:100D200065032FEF2093FA0210923F03240F2093C4
:100D30003E039093660390916603880F892B8093FE
:100D4000660380916403813061F4109264038091A2
:100D500066038093BB008091BC0083FDF8CF85ECD7
:100D600001C085EE8093BC00809167038130E1F380
:100D700080913F03841710F440913F0320E433E057
:100D8000FB01D9018A2F821B841718F48D9181935E
:100D9000F9CF842F089580E008950F93413208F031
:100DA0004AC0909167039111FCCF32E03093670302
:100DB000009365033FEF3093FA0210923F03409394
:100DC0003E03FB0160E473E0DB013A2F361B34176E
:100DD00018F431913D93F9CF109266033091660378
:100DE000880F832B8093660380916403813061F4C4
:100DF00010926403809166038093BB008091BC00D5
:100E000083FDF8CF85EC01C085EE8093BC002223E2
:100E100021F0809167038230D1F38091FA028F3FF5
:100E200079F08091FA02803241F08091FA028033A9
:100E300031F094E005C091E003C092E001C093E07E
:100E4000892F0F91089540911C03262F30E0240F25
:100E5000311D21323105DCF4209167032430C9F4BF
:100E6000FC0180E090E0861758F430911C0321913A
:100E7000DC01A25EBC4FA30FB11D2C930196F3CFF2
:100E800080911C03680F60931C0380E0089581E04B
:100E9000089582E00895909361038093600308951C
:100EA00090936303809362030895882311F085EC87
:100EB00001C085E88093BC00089585ED8093BC0057
:100EC0008091BC0084FDFCCF10926703089585ECEF
:100ED0008093BC001092670308951F920F920FB683
:100EE0000F9211242F933F934F935F936F937F93B0
:100EF0008F939F93AF93BF93EF93FF938091B9002C
:100F0000887F803609F49EC078F5883209F45DC088
:100F100090F4803109F456C038F4882309F4F5C000
:100F2000883009F44FC0F5C0883109F44EC08032D2
:100F300009F45FC0EEC0803409F46AC058F480330D
:100F400009F457C0883309F0E4C08093FA020E9484
:100F50006707DFC0803509F44FC0883509F45DC0EC
:100F6000883409F0D6C0D3C0883909F4C4C0A8F4C5
:100F7000883709F467C038F4883609F463C08037CD
:100F800009F460C0C6C0883809F4B5C0803909F4D6
:100F90005FC0803809F0BDC05BC0803B09F483C0EE
:100FA00038F4803A09F466C0883A09F47CC0B1C0CC
:100FB000803C09F4A4C0883C09F4A1C0883B09F432
:100FC00087C0A7C08091660310C090913F038091B5
:100FD0003E03981770F5E0913F0381E08E0F8093F8
:100FE0003F03F0E0E05CFC4F80818093BB0085EC28
:100FF00083C08093FA028BC0E0913F0381E08E0FA3
:1010000080933F038091BB00F0E0E05CFC4F808365
:1010100090913F0380913E036BC0E0913F0381E0DC
:101020008E0F80933F038091BB00F0E0E05CFC4FAB
:1010300080838091650381116AC081E0809364039D
:1010400084EA5EC083E0809367031092FB02CFCFF7
:101050008091FB02803208F04EC0E091FB0281E0FB
:101060008E0F8093FB028091BB00F0E0E450FD4FB7
:101070008083BDCF0E9467078091FB02803230F4ED
:10108000E091FB02F0E0E450FD4F10826091FB0222
:1010900070E0E0916003F09161038CEF92E00995BC
:1010A0001092FB0236C084E08093670310921D0308
:1010B00010921C03E0916203F09163030995809103
:1010C0001C03811105C081E080931C0310921E0354
:1010D000E0911D0381E08E0F80931D03F0E0E25E3E
:1010E000FC4F80818093BB0090911D0380911C0375
:1010F000981708F47CCF85E88093BC000AC085EC83
:101100008093BC001092670304C01092FA020E9400
:101110005D07FF91EF91BF91AF919F918F917F916B
:101120006F915F914F913F912F910F900FBE0F9054
:101130001F9018953F924F925F926F927F928F927D
:101140009F92AF92BF92CF92DF92EF92FF920F9356
:101150001F93CF93DF9300D000D0CDB7DEB790912F
:101160000101981721F09F3F09F036C204C0E2EC5C
:10117000F0E0349081C080930101E2ECF0E0E49172
:10118000EF3F09F429C2E13031F1E23009F44BC0FC
:10119000E11171C014BC15BC94B5926094BD95B5B5
:1011A000916095BDA82FB0E0FD01E057FF4FE4919D
:1011B000F0E0EE0FFF1FE255FF4F059114911093E1
:1011C000780300937703FD01E458FF4FE491E09327
:1011D0007603312C53C010928000109281009091C0
:1011E000810098609093810090918100916090932C
:1011F0008100A82FB0E0FD01E057FF4FE491F0E03F
:10120000EE0FFF1FE255FF4F0591149110937103EC
:1012100000937003FD01E458FF4FE491E0936F03E6
:10122000332433942BC01092B0001092B1009091EF
:10123000B00092609093B0009091B1009160909353
:10124000B100A82FB0E0FD01E057FF4FE491F0E0BE
:10125000EE0FFF1FE255FF4F0591149110936A03A3
:1012600000936903FD01E458FF4FE491E0936803A4
:1012700002E0302E03C03E2E37FCAEC129013A01F8
:101280008B0161E00E94DC014801A12CB12C832D6F
:101290008D7F09F0BBC060E072E18AE790E0A501B4
:1012A00094010E949E2829833A834B835C836901C1
:1012B0007A0121E0C21AD108E108F1088FEFC816BF
:1012C000D104E104F10409F008F44CC060E472E4D4
:1012D0008FE090E0A50194010E949E2869017A01A7
:1012E000E1E0CE1AD108E108F108F2E03F1220C097
:1012F0002FEFC216D104E104F10409F008F46AC129
:1013000060E970ED83E090E0A50194010E949E28C1
:1013100069017A0181E0C81AD108E108F108EFEF0C
:10132000CE16D104E104F10409F0D0F583E067C0E2
:10133000FFEFCF16D104E104F104B1F0A8F068E4A6
:1013400078EE81E090E0A50194010E949E28690159
:101350007A0181E0C81AD108E108F108332009F4C4
:10136000DFC02FC181E001C082E03320A1F047C07F
:1013700089819A81AB81BC812AE0B695A795979522
:1013800087952A95D1F76C017D0121E0C21AD10819
:10139000E108F10885E095B5987F892B85BD6FC080
:1013A00068E478EE81E090E0A50194010E949E2817
:1013B00069017A01F1E0CF1AD108E108F1082FEFB5
:1013C000C216D104E104F10409F008F4A7C064E2F4
:1013D00074EF80E090E0A50194010E949E286901CD
:1013E0007A01E1E0CE1AD108E108F108FFEFCF164B
:1013F000D104E104F10411F008F0B4C085E090914B
:10140000B100987F892B8093B10039C060E072E110
:101410008AE790E0A50194010E949E2869017A0163
:1014200081E0C81AD108E108F108C114D104E1E053
:10143000EE06F10488F068E478EE81E090E0A50122
:1014400094010E949E2869017A01F1E0CF1AD10827
:10145000E108F10893E001C091E021E032120FC0F1
:1014600080918100887F892B8093810041145104F1
:101470006104710449F42FEF3FEFA9012DC041141D
:1014800051046104710471F0D801AA0FBB1FA301BC
:1014900092010E94DF2828EE33E040E050E00E94F5
:1014A0009E2803C02FEF3FEFA90181E03816A1F07D
:1014B000E2E03E1619F131108FC0C7BC20937903CA
:1014C00030937A0340937B0350937C0380916E00AA
:1014D000826080936E0080C0D0928900C0928800A4
:1014E00020937203309373034093740350937503F6
:1014F00080916F00826080936F006EC0C092B300D5
:1015000020936B0330936C0340936D0350936E03F1
:10151000809170008260809370005EC084E06FCF25
:10152000FFEFCF16D104E104F104D1F0C8F062E17D
:101530007AE780E090E0A50194010E949E2869016D
:101540007A0181E0C81AD108E108F108EFEFCE1660
:10155000D104E104F10411F008F00ACF84E01BCFBC
:1015600083E019CF62E17AE780E090E0A501940181
:101570000E949E2869017A0181E0C81AD108E10819
:10158000F108EFEFCE16D104E104F104C1F0B8F098
:1015900089819A81AB81BC814AE0B695A7959795E0
:1015A00087954A95D1F76C017D0121E0C21AD108D7
:1015B000E108F108332009F4EDCE87E020CF86E082
:1015C000D4CEFFEFCF16D104E104F10409F050F6B8
:1015D00084E0CBCE82E013CF0F900F900F900F904E
:1015E000DF91CF911F910F91FF90EF90DF90CF90FF
:1015F000BF90AF909F908F907F906F905F904F9033
:101600003F900895813039F018F0823051F00895FC
:1016100010926E00089580916F008D7F80936F000F
:101620000895809170008D7F8093700081E0809399
:10163000B0008091B100887F84608093B1001092E7
:10164000B3000895CF93C82F809101018C1307C078
:10165000E2ECF0E0E4918FEF8093010101C0EFEF45
:101660008E2F0E94020B60E08C2FCF910C941802F9
:101670001F920F920FB60F9211242F933F934F9307
:101680005F936F937F938F939F93AF93BF93EF93EA
:10169000FF9380916B0390916C03A0916D03B091C7
:1016A0006E03892B8A2B8B2B51F180916803E0917B
:1016B0006903F0916A0390818927808380916B038D
:1016C00090916C03A0916D03B0916E0318161906EA
:1016D0001A061B06C4F480916B0390916C03A091D1
:1016E0006D03B0916E030197A109B10980936B035B
:1016F00090936C03A0936D03B0936E0304C080912C
:1017000001010E94220BFF91EF91BF91AF919F9138
:101710008F917F916F915F914F913F912F910F909A
:101720000FBE0F901F9018958091B10390E020910B
:10173000B203821B910908959091B2038091B10385
:10174000981750F4E92FF0E0ED54FC4F208130E081
:101750009F5F9093B20302C02FEF3FEFC90108953E
:10176000E091B2038091B103E81730F4F0E0ED545A
:10177000FC4F808190E008958FEF9FEF08950895CA
:10178000AC01E0918903F0918A033097E1F09091E8
:10179000B2038091B1039817B0F090E0292F30E0A8
:1017A0002617370754F4DA01A20FB31F8C91D90121
:1017B000AD54BC4F8C939F5FF1CF1092B2036093F6
:1017C000B103CB0109940895E0918B03F0918C0350
:1017D000309729F010928F0310928E030994089588
:1017E000CF92DF92EF92FF920F931F93CF93DF93ED
:1017F0007C01262F972F8A0180918D03882391F0F9
:10180000C62FD72F6E01C40ED51ECC15DD0571F085
:101810006991D701ED91FC910190F081E02DC70114
:101820000995F3CF642F822F0E942307C801DF910F
:10183000CF911F910F91FF90EF90DF90CF9008957F
:10184000CF93DF931F92CDB7DEB7698320918D03CD
:101850002223D1F020918E03203240F021E030E0AD
:10186000FC013383228380E090E015C080918F03D8
:10187000E82FF0E0E057FC4F998190838F5F8093D1
:101880008F0380938E0305C061E0CE0101960E9414
:10189000230781E090E00F90DF91CF910895FC0144
:1018A0001382128288EE93E0A0E0B0E084839583F7
:1018B000A683B7838BEA91E0918380830895109289
:1018C000B2031092B10310928F0310928E030C9406
:1018D0004206CF93DF93EC01862F0E946D0684EEC3
:1018E0009BE00E94500780EC9BE00E944B07CE01DA
:1018F000DF91CF910C945F0C0C94690C0C946006F2
:10190000CB01BA010C94710681E080938D03609342
:10191000B00310928F0310928E0308950C94840CE0
:101920000F93062F21E040918E0360E973E08091D0
:10193000B0030E94CD0610928F0310928E03109276
:101940008D030F9108954F925F926F927F92AF92A5
:10195000BF92CF92EF92FF920F931F93CF93DF939B
:101960005C01F62ED42F28013901EE2021F10E94CE
:10197000840CCE2DC43008F0C3E0C150C0F0D501B6
:10198000ED91FC91B8E0CB9FC0011124A30192011D
:1019900004C056954795379527958A95D2F7CA0181
:1019A000B9010190F081E02DC5010995E6CF60E015
:1019B000C5010E94900C4D2FD13208F040E22C2D31
:1019C00063EB73E08F2D0E9485061092B203809323
:1019D000B103DF91CF911F910F91FF90EF90CF90C6
:1019E000BF90AF907F906F905F904F900895CF928F
:1019F000EF920F931F93C22EE12C00E010E09801AC
:101A00000E94A30C1F910F91EF90CF90089521E0B9
:101A10000C94F70C21E00C94F70C0C94F70C61E09B
:101A20000C94900C70938A036093890308957093CB
:101A30008C0360938B0308951F920F920FB60F9241
:101A400011242F938F939F93EF93FF93E091E303E0
:101A5000F091E4038081E091E903F091EA0382FDD3
:101A600012C090818091EC038F5F8F732091ED0302
:101A7000821751F0E091EC03F0E0ED52FC4F958FAE
:101A80008093EC0301C08081FF91EF919F918F9132
:101A90002F910F900FBE0F901F9018951F920F92CD
:101AA0000FB60F9211242F933F934F935F936F9331
:101AB0007F938F939F93AF93BF93EF93FF9383EDA8
:101AC00093E00E94CF0DFF91EF91BF91AF919F9155
:101AD0008F917F916F915F914F913F912F910F90D7
:101AE0000FBE0F901F90189583ED93E00E94840D18
:101AF00021E0892B09F420E0822F089580E090E016
:101B00000895089508950895FC01918D228D892FDF
:101B100090E0805C9F4F821B91098F7399270895F5
:101B2000FC01918D828D981731F0828DE80FF11DA7
:101B3000858D90E008958FEF9FEF0895FC01918DC2
:101B4000828D981761F0828DDF01A80FB11D5D961F
:101B50008C91928D9F5F9F73928F90E008958FEF8D
:101B60009FEF0895FC01538D448D252F30E0842F85
:101B700090E0821B930B541710F0CF9608950197B5
:101B8000089584E79DE0892B49F080E090E0892B5F
:101B900029F00E94740D81110C9400000895FC013D
:101BA000848DDF01A80FB11DA35ABF4F2C91848DE6
:101BB00090E001968F739927848FA689B7892C931B
:101BC000A089B1898C9180648C93938D848D9813B6
:101BD00006C00288F389E02D80818F7D808308957F
:101BE000CF93DF93EC01888D8823C9F0EA89FB89C4
:101BF000808185FD05C0A889B9898C9186FD0FC0BB
:101C00000FB607FCF5CF808185FFF2CFA889B9898F
:101C10008C9185FFEDCFCE010E94CF0DE7CFDF91F4
:101C2000CF910895EF92FF920F931F93CF93DF937D
:101C3000EC0181E0888F9B8D8C8D981305C0E8891D
:101C4000F989808185FD24C0F62E0B8D10E00F5F91
:101C50001F4F0F731127E02E8C8DE8120CC00FB6AA
:101C600007FCFACFE889F989808185FFF5CFCE019D
:101C70000E94CF0DF1CF8B8DFE01E80FF11DE35ACD
:101C8000FF4FF0820B8FEA89FB898081806207C059
:101C9000EE89FF896083E889F98980818064808387
:101CA00081E090E0DF91CF911F910F91FF90EF9035
:101CB0000895CF92DF92EF92FF921F93CF93DF931D
:101CC000EC016A017B01122FE889F98982E08083A7
:101CD0004115514E61057105B1F060E079E08DE389
:101CE00090E0A70196010E949E28DA01C9010197A0
:101CF000A109B109B695A79597958795AC014115AE
:101D000080E15807A8F0E889F989108260E874E852
:101D10008EE190E0A70196010E949E28BA01A901D8
:101D20004150510961097109769567955795479515
:101D3000EC85FD855083EE85FF854083188EEC8908
:101D4000FD891083EA89FB89808180618083EA892B
:101D5000FB89808188608083EA89FB898081806833
:101D60008083EA89FB8980818F7D8083DF91CF9199
:101D70001F91FF90EF90DF90CF900895CF93DF9366
:101D8000EC01E881F9810680F781E02D0995EA8967
:101D9000FB8980818F7E8083EA89FB898081877FB0
:101DA0008083EA89FB8980818F778083EA89FB8938
:101DB00080818F7D80838A8D898FDF91CF91089577
:101DC000CF93CFB7F89480917304811127C0EAE9CB
:101DD000F0E08491E6E8F0E09491E82FF0E0EE0F77
:101DE000FF1FE854FF4FA591B491EC91E92321F432
:101DF00061E08AE00E94180261E08AE00E94DC0152
:101E00008CB580618CBD8CB580648CBD61E08DE04B
:101E10000E94DC0161E08BE00E94DC018091730490
:101E20008F5F80937304CFBFCF9108959FB7F894CD
:101E300080917304882319F08150809373048091FA
:101E40007304811105C08CB58F7B8CBD1092720418
:101E50009FBF08959FB7F894882349F0813011F40B
:101E600082E006C082E08093720480E001C081E0DD
:101E700020917104822B80937104809172048111EE
:101E800003C081E0809372049FBF08959091720413
:101E90009230B1F02FB7F894882321F0813021F4EB
:101EA00082E003C081E001C080E0809590917104E0
:101EB000892380937104811102C0109272042FBF94
:101EC00008958F929F92AF92BF92CF92DF92EF923E
:101ED000FF920F931F93CF93DF937C018B016C01D3
:101EE00082E0C80ED11C4701E5E08E0E911CC0E0D7
:101EF000D0E0F60161916F014AE050E0C8010E9414
:101F000070245C016EE2C8010E9431238A0D9B1D82
:101F1000C80FD91FC814D90461F74AE050E0F7018F
:101F20006581C8010E9470248C0F9D1FDF91CF91A5
:101F30001F910F91FF90EF90DF90CF90BF90AF90E7
:101F40009F908F9008952FEC31E0FC013183208326
:101F5000128213821482158208950F93FC018FEC74
:101F600091E09183808362834383248305830F916F
:101F700008952FEC31E0FC013183208342835383A9
:101F80006483758308952FEC31E0FC013183208355
:101F9000FB014081518162817381FC014283538343
:101FA000648375830895DC0190E020E030E08AE0EE
:101FB000FB014191BF01442309F150ED540F5A3008
:101FC00088F4829FF001839FF00D11249F0120531C
:101FD0003109240F311D47FD3A952F3F310541F35B
:101FE00038F312C04E3281F4933071F0FD01E90FE5
:101FF000F11D22839F5F20E030E0DACF933021F49F
:1020000015962C9381E0089580E00895FB014081AE
:10201000518162817381FC014283538364837583A0
:102020000895FC01428353836483758308959B0163
:10203000BC016E5F7F4F44E050E0C9010E94252E35
:1020400021E0892B09F020E0822F0895CF92DF92C2
:10205000EF92FF920F931F93E82FF92F05C00150C5
:1020600011092109310961F1908196239417B9F37F
:1020700005C0015011092109310911F19081962300
:102080009413F7CFC12CD12CE12CF12C0AC08FEF87
:10209000C81AD80AE80AF80A0C151D052E053F05CE
:1020A00079F080818623841791F36C2D7D2D8E2D00
:1020B0009F2D1F910F91FF90EF90DF90CF9008958B
:1020C00060E070E080E090E01F910F91FF90EF9052
:1020D000DF90CF9008952F923F924F925F926F9230
:1020E0007F928F929F92AF92BF92CF92DF92EF92A8
:1020F000FF920F931F93CF93DF93CDB7DEB76A970D
:102100000FB6F894DEBF0FBECDBF9A8F898F5B01EB
:102110006A0179010E941F2269837A838B839C83E1
:1021200061ED71E083ED93E00E946A236CED71E054
:1021300083ED93E00E946A23298D3A8D2F5F3F4FF4
:102140003E872D8704EF11E020E030E049E150E0C8
:1021500060E070E08D859E850E944E202501612CF7
:10216000712C00E010E0812C912C54011D821E8204
:102170001F821886C601A0E0B0E0898B9A8BAB8BDA
:10218000BC8B970140E050E02D8B3E8B4F8B588FDE
:1021900089899A89AB89BC8984159505A605B705F7
:1021A00008F4E7C00E941F226B017C0129813A815B
:1021B0004B815C81C21AD30AE40AF50A8D859E859B
:1021C0000E947220A98DBA8D91964D925D926D926A
:1021D0007C929497B8ECCB16D104E104F10450F44E
:1021E000E98DFA8D6081842D0E948F21812C912CA4
:1021F0005401CECFF8ECCF1AD108E108F10828EC51
:10220000C216D104E104F104C8F4A98DBA8D8C91F1
:102210000E94A221880E991EA11CB11C0F5F1F4FA6
:10222000980140E050E0C501B4010E949E28E98D6C
:10223000FA8D25AB36AB47AB50AFAACF980140E043
:1022400050E0C501B4010E949E2829833A834B8344
:102250005C8349015A01C301B2010E948E286B01BF
:102260007C012D813E814F8158852617370748070D
:10227000590760F489869A86AB86BC866D837E8317
:102280008F839887342C252C6F86788A89819A8150
:10229000AB81BC818F3F9F4FA105B10540F0E2E0CB
:1022A000F0E0A98DBA8D9096FC93EE935F970E9413
:1022B0009821882341F0E4E0F0E0A98DBA8D909652
:1022C000FC93EE935F972AE030E0B301A20183ED27
:1022D00093E00E94632464EF71E083ED93E00E9439
:1022E0002F232AE030E049815A816B817C8183ED84
:1022F00093E00E94632464EF71E083ED93E00E9419
:102300002F232AE030E0B701A60183ED93E00E947D
:10231000632464EF71E083ED93E00E942F23A98D85
:10232000BA8D5F966D917C9190974AE050E083ED75
:1023300093E00E94332464EF71E083ED93E00E9408
:102340002F23E98DFA8D608183ED93E00E947C2339
:102350000E941F2269837A838B839C832D893E8907
:102360004F89588D420E531E641E751E00E010E00A
:102370000FCF83ED93E00E94422367EF71E083ED7E
:1023800093E00E942F232AE030E049855A856B852F
:102390007C8583ED93E00E9463246FEF71E083ED11
:1023A00093E00E942F232AE030E0432D522D6F85C9
:1023B000788983ED93E00E94632469E072E083ED05
:1023C00093E00E942F23A98DBA8D5F966D917C9129
:1023D00090974AE050E083ED93E00E943A242985EB
:1023E0003A854B855C85223331054105510540F422
:1023F00083E090E0A98DBA8D90969C938E935F9721
:10240000E98DFA8D31A222A22F8523A3388934A326
:10241000608180E06A960FB6F894DEBF0FBECDBF34
:10242000DF91CF911F910F91FF90EF90DF90CF90B0
:10243000BF90AF909F908F907F906F905F904F90E4
:102440003F902F900C948F214F925F926F927F92CA
:102450008F929F92AF92BF92CF92DF92EF92FF92B4
:102460000F931F93CF93DF93EC010E941F22C9ACFF
:10247000DAACEBACFCAC2F8D38A12330310509F47C
:10248000A2C12D8D3E8D2431310508F09CC1DC01A7
:10249000CB018C199D09AE09BF096C017D0108ECC7
:1024A000C01AD108E108F10818ECC116D104E10402
:1024B000F10418F4688189A134C06C017D0120E920
:1024C000C21A21E0D20AE108F10838ECC316D1049F
:1024D000E104F104A8F488810E94A2214DA55EA523
:1024E0006FA578A9480F591F611D711D4DA75EA7E3
:1024F0006FA778AB898D9A8D01969A8F898F82C14B
:102500006C017D0108E5C01A02E0D00AE108F1087B
:1025100018ECC116D104E104F104A8F489A1688182
:102520008F5FDF91CF911F910F91FF90EF90DF9020
:10253000CF90BF90AF909F908F907F906F905F9063
:102540004F900C948F216C017D0120E2C21A23E090
:10255000D20AE108F10838ECC316D104E104F10411
:10256000A8F488810E94A22149A95AA96BA97CA933
:10257000480F591F611D711D49AB5AAB6BAB7CAB4A
:102580008B8D9C8D01969C8F8B8F3CC1883E934098
:10259000A105B10508F436C1298D3A8D40E050E01F
:1025A0006DA57EA58FA598A90E949E282DA73EA760
:1025B0004FA758ABC9A0DAA0EBA0FCA0C701B60199
:1025C0000E948E284B015C016DA37EA38FA398A768
:1025D0001A8E198E2B8D3C8D40E050E069A97AA9A6
:1025E0008BA99CA90E949E2829AB3AAB4BAB5CAB54
:1025F000260137011FEF411A510A610A710AC3010E
:10260000B2010E948E2869A77AA78BA79CA71C8E6F
:102610001B8E9E012F5F3F4F86169706A806B906B0
:1026200038F449A25AA26BA27CA262E070E00BC00F
:1026300081E0C81AD108E108F108C9A2DAA2EBA228
:10264000FCA261E070E0C9010E9462208DA19EA100
:10265000AFA1B8A5892B8A2B8B2B19F481E090E0D0
:102660000BC08DA59EA5AFA5B8A98F3F9F40A10522
:10267000B10550F082E090E098A38F8F8D8D9E8DF4
:1026800001969E8F8D8F0BC00E949821882319F090
:1026900084E090E0F1CF18A21F8E1E8E1D8E49A1FE
:1026A0005AA16BA17CA12AE030E083ED93E00E9467
:1026B000632464EF71E083ED93E00E942F234DA526
:1026C0005EA56FA578A92AE030E083ED93E00E9433
:1026D000632464EF71E083ED93E00E942F234DA10A
:1026E0005EA16FA178A52AE030E083ED93E00E941F
:1026F000632464EF71E083ED93E00E942F236F8DDC
:1027000078A14AE050E083ED93E00E94332464EF27
:1027100071E083ED93E00E942F2380E00E94161465
:102720004AE050E0BC0183ED93E00E94332464EF63
:1027300071E083ED93E00E942F230E94CF21AB0133
:10274000BC0122E030E083ED93E00E949E2564EF1F
:1027500071E083ED93E00E942F23688183ED93E085
:102760000E94312383ED93E00E94422349A95AA994
:102770006BA97CA98DA59EA5AFA5B8A98A019B01CF
:10278000080F191F2A1F3B1FC901B8010E94302AD8
:1027900020E030E040E05FE30E94E72A0E94012A47
:1027A0006DAB7EAB8FAB98AF0E941F2269AF7AAF43
:1027B0008BAF9CAF1DA61EA61FA618AA19AA1AAAFF
:1027C0001BAA1CAA1FC0219604EF11E020E030E0F4
:1027D00044EF51E060E070E0CE010E944E20CE0157
:1027E000DF91CF911F910F91FF90EF90DF90CF90ED
:1027F000BF90AF909F908F907F906F905F904F9021
:102800000C945C20DF91CF911F910F91FF90EF907E
:10281000DF90CF90BF90AF909F908F907F906F9000
:102820005F904F9008958093020108958E3008F0D4
:102830008E5087702091020190E4299F900111240D
:10284000822B80937C0080917A00806480937A0050
:1028500080917A0086FDFCCF8091780020917900EC
:1028600090E0922B08951F93CF93DF93182FEB01E5
:1028700061E00E94DC01209711F460E004C0CF3FCA
:10288000D10539F461E0812FDF91CF911F910C9434
:102890001802E12FF0E0E859FF4FE491E330F9F03E
:1028A00048F4E130B9F0E230A1F584B5806284BD2E
:1028B000C8BD34C0E730E9F0E83019F1E43049F53B
:1028C00080918000806280938000D0938B00C093C1
:1028D0008A0024C084B5806884BDC7BD1FC08091B4
:1028E0008000806880938000D0938900C093880026
:1028F00015C08091B00080688093B000C093B30091
:102900000DC08091B00080628093B000C093B4008D
:1029100005C0C038D1050CF0B5CFAFCFDF91CF9156
:102920001F910895CF92DF92EF92FF920F931F9322
:10293000CF93DF93F82ED62FE42E07E010E0C0E00F
:1029400087E0C82ED12C61E08D2F0E9418028F2DB8
:10295000E1100AC00E9448029601201B310B01C001
:10296000880F2A95EAF707C00E944802002E01C08E
:10297000880F0A94EAF7C82B60E08D2F0E94180296
:102980000150110900F78C2FDF91CF911F910F910A
:10299000FF90EF90DF90CF900895BF92CF92DF929B
:1029A000EF92FF920F931F93CF93DF93C82ED62EF3
:1029B000B42EC7E0D0E0022F10E087E0E82EF12C23
:1029C000B11005C0C7018C1B9D0B980102C0980176
:1029D0008C2F02C0359527958A95E2F7B901617071
:1029E00077278C2D0E94180261E08D2D0E9418021D
:1029F00060E08D2D0E941802219710F7DF91CF9192
:102A00001F910F91FF90EF90DF90CF90BF900895AE
:102A1000EF92FF920F931F93CF93DF9326E040E84E
:102A200055E260E070E083ED93E00E94590E0E9451
:102A3000E00E6AE070E08DE793E00E947C0C65E8B0
:102A400077E28DE793E00E94170D64E172E083ED79
:102A500093E00E946A230E948C210E949A210E9486
:102A6000C72167E272E083ED93E00E946A2321E0D0
:102A700030E044E650E060E070E080E491E00E94E5
:102A80006B10C0E4D1E0688189A10E948F2121E010
:102A900030E044E650E060E070E083E091E00E94C6
:102AA0006B1083E0E82E81E0F82EF701608181A1B0
:102AB0000E948F2183ED93E00E9442236BE372E03A
:102AC00083ED93E00E946A2367E572E083ED93E073
:102AD0000E946A2302E310E020E030E042E350E08D
:102AE00060E070E081E491E00E944E2002E310E09B
:102AF00020E030E042E350E060E070E084E091E00C
:102B00000E944E200E941F22F70161AF72AF83AF77
:102B100094AF69AF7AAF8BAF9CAF6DE872E083ED95
:102B200093E0DF91CF911F910F91FF90EF900C9464
:102B30006A2380E491E00E94241283E091E00E94E5
:102B4000241281E491E00E94722084E091E00E94CE
:102B500072200E94CA2163E071E080E491E00C944D
:102B6000AA26FC01808191810C940E2CCF93DF93D7
:102B7000EC0188819981009711F00E940E2C198236
:102B800018821D821C821B821A82DF91CF910895C8
:102B90000F931F93CF93DF93EC018B016F5F7F4FF8
:102BA000888199810E94022D009731F09983888352
:102BB0001B830A8381E001C080E0DF91CF911F91E8
:102BC0000F910895CF93DF93EC0188819981892B30
:102BD00029F08A819B818617970760F4CE010E94B5
:102BE000C815882341F08C819D81892B19F4E881D7
:102BF000F981108281E0DF91CF910895EF92FF92E9
:102C00000F931F93CF93DF93EC017B018A01BA01ED
:102C10000E94E215811104C0CE010E94B61507C0C2
:102C20001D830C83B701888199810E94612ECE019A
:102C3000DF91CF911F910F91FF90EF900895FC01CC
:102C4000118210821382128215821482611571051D
:102C500051F0FB0101900020E9F73197AF01461BCD
:102C6000570B0C94FE150895EF92FF920F931F934C
:102C7000CF93DF93EC017B018A01BA010E94E21538
:102C8000811104C0CE010E94B61507C01D830C83BC
:102C9000B701888199810E94152ECE01DF91CF91D5
:102CA0001F910F91FF90EF900895CF93DF93EC0168
:102CB000FB018617970761F06081718161157105CD
:102CC00029F0448155810E94FE1502C00E94B6156C
:102CD000CE01DF91CF910895FC0111821082138201
:102CE0001282158214820C945516CF93DF93EC0157
:102CF0006115710559F0FB0101900020E9F731974A
:102D0000AF01461B570B0E94FE1502C00E94B6156C
:102D1000CE01DF91CF910895CF93DF9300D0CDB74F
:102D2000DEB7FC0111821082138212821582148296
:102D300069831A82BE016F5F7F4F0E9475160F90E4
:102D40000F90DF91CF9108950F931F93CF93DF934F
:102D5000CDB7DEB729970FB6F894DEBF0FBECDBF53
:102D60008C01862FF8011182108213821282158243
:102D7000148250E0BE016F5F7F4F90E00E941C2FD5
:102D8000BE016F5F7F4FC8010E94751629960FB66E
:102D9000F894DEBF0FBECDBFDF91CF911F910F9191
:102DA00008950F931F93CF93DF93CDB7DEB762974C
:102DB0000FB6F894DEBF0FBECDBF8C01CB01F8017A
:102DC00011821082138212821582148250E0BE0199
:102DD0006F5F7F4F0E94AA2EBE016F5F7F4FC801B9
:102DE0000E94751662960FB6F894DEBF0FBECDBF77
:102DF000DF91CF911F910F9108950F931F93CF9360
:102E0000DF93CDB7DEB761970FB6F894DEBF0FBE84
:102E1000CDBF8C01CB01F801118210821382128286
:102E20001582148250E0BE016F5F7F4F0E941C2FFD
:102E3000BE016F5F7F4FC8010E94751661960FB685
:102E4000F894DEBF0FBECDBFDF91CF911F910F91E0
:102E500008950F931F93CF93DF93CDB7DEB7A2975B
:102E60000FB6F894DEBF0FBECDBF8C01CB01BA0107
:102E7000F80111821082138212821582148230E0CE
:102E8000AE014F5F5F4F0E94C02EBE016F5F7F4F4C
:102E9000C8010E947516A2960FB6F894DEBF0FBE49
:102EA000CDBFDF91CF911F910F9108950F931F9385
:102EB000CF93DF93CDB7DEB7A1970FB6F894DEBFFF
:102EC0000FBECDBF8C01CB01BA01F8011182108277
:102ED000138212821582148230E0AE014F5F5F4F81
:102EE0000E94EF2EBE016F5F7F4FC8010E947516D2
:102EF000A1960FB6F894DEBF0FBECDBFDF91CF9184
:102F00001F910F910895EF92FF920F931F93CF930C
:102F1000DF93CDB7DEB7A1970FB6F894DEBF0FBE33
:102F2000CDBF7C01CB01BA01F7011182108213825F
:102F300012821582148242E0420F8E010F5F1F4FF2
:102F40000E94592BBC01C7010E947516A1960FB6AD
:102F5000F894DEBF0FBECDBFDF91CF911F910F91CF
:102F6000FF90EF900895EF92FF920F931F93CF93EE
:102F7000DF93CDB7DEB7A1970FB6F894DEBF0FBED3
:102F8000CDBF7C01CB01BA01F701118210821382FF
:102F900012821582148242E0420F8E010F5F1F4F92
:102FA0000E94592BBC01C7010E947516A1960FB64D
:102FB000F894DEBF0FBECDBFDF91CF911F910F916F
:102FC000FF90EF9008950F931F93CF93DF9300D05E
:102FD000CDB7DEB78C016115710561F0CB01698356
:102FE0007A830E941C2EAC0169817A81C8010E94FB
:102FF000341602C00E94B615C8010F900F90DF91E1
:10300000CF911F910F910895FC01118210821382BC
:103010001282158214820C94E317EF92FF920F93A1
:103020001F93CF93DF93FC012481358161157105D6
:1030300011F480E019C041155105A9F07B01EC01A4
:103040008A01020F131FB8010E94E215882389F339
:10305000288139818C819D81B701820F931F0E9445
:10306000612E1D830C8381E0DF91CF911F910F9121
:10307000FF90EF900895FB0144815581608171813B
:103080000C940D186115710551F0FB0101900020A1
:10309000E9F73197AF01461B570B0C940D1880E0F0
:1030A0000895CF93DF9300D0CDB7DEB769831A823E
:1030B00041E050E0BE016F5F7F4F0E940D180F90FE
:1030C0000F90DF91CF910895EF92FF920F931F938E
:1030D000CF93DF9300D000D0CDB7DEB77C01862F31
:1030E0004AE050E08E010F5F1F4FB80190E00E9450
:1030F000AA2EF80101900020E9F73197AF01401B9B
:10310000510BB801C7010E940D180F900F900F903E
:103110000F90DF91CF911F910F91FF90EF90089545
:10312000EF92FF920F931F93CF93DF93CDB7DEB74C
:1031300028970FB6F894DEBF0FBECDBF7C01CB0140
:103140004AE050E08E010F5F1F4FB8010E94AA2E87
:10315000F80101900020E9F73197AF01401B510BB6
:10316000B801C7010E940D1828960FB6F894DEBF6B
:103170000FBECDBFDF91CF911F910F91FF90EF90C8
:103180000895EF92FF920F931F93CF93DF93CDB7E4
:10319000DEB727970FB6F894DEBF0FBECDBF7C0118
:1031A000CB014AE050E08E010F5F1F4FB8010E9433
:1031B0001C2FF80101900020E9F73197AF01401B67
:1031C000510BB801C7010E940D1827960FB6F8944D
:1031D000DEBF0FBECDBFDF91CF911F910F91FF904A
:1031E000EF900895EF92FF920F931F93CF93DF9389
:1031F000CDB7DEB72E970FB6F894DEBF0FBECDBFAA
:103200007C01CB01BA012AE030E08E010F5F1F4F35
:10321000A8010E94C02EF80101900020E9F7319723
:10322000AF01401B510BB801C7010E940D182E962B
:103230000FB6F894DEBF0FBECDBFDF91CF911F91C7
:103240000F91FF90EF900895EF92FF920F931F93CD
:10325000CF93DF93CDB7DEB72D970FB6F894DEBFCF
:103260000FBECDBF7C01CB01BA012AE030E08E0158
:103270000F5F1F4FA8010E94EF2EF8010190002060
:10328000E9F73197AF01401B510BB801C7010E940C
:103290000D182D960FB6F894DEBF0FBECDBFDF918F
:1032A000CF911F910F91FF90EF900895EF92FF92B1
:1032B0000F931F93CF93DF93CDB7DEB764970FB60D
:1032C000F894DEBF0FBECDBF7C01CB01BA018E01E9
:1032D0000F5F1F4F22E044E00E94592BBC01FC010C
:1032E00001900020E9F73197AF01481B590BC70146
:1032F0000E940D1864960FB6F894DEBF0FBECDBFC6
:10330000DF91CF911F910F91FF90EF900895EF9271
:10331000FF920F931F93CF93DF93CDB7DEB76497E0
:103320000FB6F894DEBF0FBECDBF7C01CB01BA0152
:103330008E010F5F1F4F22E044E00E94592BBC0119
:10334000FC0101900020E9F73197AF01481B590BB0
:10335000C7010E940D1864960FB6F894DEBF0FBE29
:10336000CDBFDF91CF911F910F91FF90EF90089506
:10337000EF92FF920F931F93CF93DF936115710527
:1033800011F480E01EC08B01EC01CB010E941C2EC9
:103390000097B1F02C813D817C01E20EF31EB70154
:1033A000CE010E94E215882361F3288139818C8146
:1033B0009D81B801820F931F0E94152EFD82EC8221
:1033C00081E0DF91CF911F910F91FF90EF900895D1
:1033D000CF93DF93EC01FB014481558160817181C2
:1033E0000E940D18811103C0CE010E94B615CE01B6
:1033F000DF91CF910895CF93DF93EC0161157105B3
:1034000061F0FB0101900020E9F73197AF01461B05
:10341000570B0E940D18811103C0CE010E94B615F2
:10342000CE01DF91CF910895CF93DF93EC010E94FD
:103430005118811103C0CE010E94B615CE01DF9153
:10344000CF910895CF93DF93EC010E94641881110E
:1034500003C0CE010E94B615CE01DF91CF91089531
:10346000CF93DF93EC010E949018811103C0CE012D
:103470000E94B615CE01DF91CF910895CF93DF93CF
:10348000EC010E94C118811103C0CE010E94B61543
:10349000CE01DF91CF910895CF93DF93EC010E948D
:1034A000F218811103C0CE010E94B615CE01DF9142
:1034B000CF910895CF93DF93EC010E9424198111DD
:1034C00003C0CE010E94B615CE01DF91CF910895C1
:1034D000CF93DF93EC010E945619811103C0CE01F6
:1034E0000E94B615CE01DF91CF910895CF93DF935F
:1034F000EC010E948719811103C0CE010E94B6150C
:10350000CE01DF91CF910895CF93DF93EC010E941C
:10351000B819811103C0CE010E94B615CE01DF910A
:10352000CF910895CF93DF93DC01ED91FC91EB01F6
:10353000A881B981309711F01097C9F4109759F00C
:10354000EB012C813D81232B31F08C9190E0919502
:103550008195910914C0309781F0DC0114968D910A
:103560009C911597892B49F0808190E008C0BD019E
:10357000CF01DF91CF910C94582E80E090E0DF9145
:10358000CF910895FC0144815581FB01248135814F
:103590004217530729F40E94921A21E0892B09F05F
:1035A00020E0822F0895FC0124813581232B31F402
:1035B00021E061157105A1F0FB0108C0FC018081CB
:1035C00091816115710531F421E0FC01808188232E
:1035D00039F005C00E94582E21E0892B09F020E027
:1035E000822F08950E94921A892F881F8827881F8A
:1035F00008950E94921A21E0181619060CF020E096
:10360000822F08950E94921A21E0181619060CF4D0
:1036100020E0822F08950E94921A892F8095881F9A
:103620008827881F0895EF92FF920F931F93CF93DF
:10363000DF938617970729F1FC0124813581FB016F
:103640004481558124173507F1F4232BD1F0DC0197
:10365000CD91DC91008111818991882391F0082E10
:10366000000C990B0E94052E7C01F80181918F01BD
:10367000082E000C990B0E94052EE816F90661F33E
:1036800002C081E001C080E0DF91CF911F910F91D6
:10369000FF90EF900895DB011496ED91FC91159742
:1036A000DC0114962D913C9115972E1B3F0B24178E
:1036B0003507A0F02D913C912115310579F0DB0102
:1036C0006D917C916115710549F0CA01AF01820FBE
:1036D000931F0E94682E21E0892B09F020E0822FA1
:1036E0000895FC0144815581FB01248135814217F5
:1036F000530720F040E050E00C944B1B80E008950D
:10370000FC0124813581FB01448155812417350753
:10371000A0F0FC0180819181009779F0FB0160812C
:1037200071816115710549F0241B350B820F931FC0
:103730000E94582E21E0892B09F020E0822F089565
:10374000FC01248135816217730730F480819181F7
:10375000FC01E60FF71F40830895FC0124813581A9
:103760006217730720F480819181009729F41092E9
:103770007B048BE794E00895860F971F0895FC0162
:10378000248135816217730748F480819181009705
:1037900029F0FC01E60FF71F8081089580E008956D
:1037A0000C94BF1B0F931F93CF93DF9341155105CB
:1037B00019F16115710501F1DC011496ED91FC918F
:1037C00015972E173F0718F0FB01108215C0E21B5A
:1037D000F30BEA012197EC17FD0708F4EF018B01C9
:1037E000FC0160817181620F731FAE01C8010E94EC
:1037F000762EC00FD11F1882DF91CF911F910F91AC
:103800000895CF93DF93FC0124813581421753073C
:1038100078F4C081D181062E000C770BCE01840F85
:10382000951F0E944D2E009719F08C1B9D0B02C016
:103830008FEF9FEFDF91CF91089540E050E00C941F
:10384000011CCF93DF93FC0124813581421753077C
:1038500080F4FB01DC01CD91DC9160817181CE01AE
:10386000840F951F0E94902E009719F08C1B9D0BC2
:1038700002C08FEF9FEFDF91CF91089540E050E0BD
:103880000C94211CDF92EF92FF920F931F93CF9322
:10389000DF93DC0114962D913C9115974217530745
:1038A00018F08FEF9FEF1DC08C01EA012196DC011B
:1038B000ED91FC911197EC0FFD1FD0801082ED90DF
:1038C000FC90062E000C770BC7010E94852ECE0DB2
:1038D000DF1DD882009729F3F80120813181821BF6
:1038E000930BDF91CF911F910F91FF90EF90DF909D
:1038F0000895FC0144815581415051090C94421CAA
:10390000AF92BF92CF92DF92EF92FF920F931F93ED
:10391000CF93DF937B018A01FB01448155814115DF
:10392000510561F1FC01248135812115310531F109
:103930002417350718F10217130718F089010150F1
:103940001109FC01A080B180C501DFEFCFEF650157
:10395000C00ED11EC816D906A0F0F7016081718192
:103960000E94902E009769F09C012A193B090217CA
:10397000130710F0D22FC32F0196ECCF8FEF9FEFDC
:1039800002C08D2F9C2FDF91CF911F910F91FF903F
:10399000EF90DF90CF90BF90AF900895FC014481ED
:1039A0005581FB0124813581421B530B0C94801CF3
:1039B000BF92CF92DF92EF92FF920F931F93CF931C
:1039C000DF937C016B018A01E9012417350720F49C
:1039D000812F8901C42FD82F6BEC72E0C7010E94A0
:1039E0001F16D60114968D919C91159708171907EB
:1039F000D0F48C179D0708F4EC01D601ED91FC91F1
:103A00001197EC0FFD1FB08010824D915C91BA01AF
:103A1000600F711FC7010E947516D601ED91FC91D0
:103A2000EC0FFD1FB082C701DF91CF911F910F9165
:103A3000FF90EF90DF90CF90BF900895DC01ED9163
:103A4000FC91309729F40895861301C04083319684
:103A500080818111F9CF08952F923F924F925F920A
:103A60006F927F928F929F92AF92BF92CF92DF928E
:103A7000EF92FF920F931F93CF93DF93FC0144804B
:103A800055804114510409F4D2C0FB016480758053
:103A90006114710409F4CBC07A016B018C01FA0145
:103AA000A480B580A618B708FC01C081D181A114FB
:103AB000B104C1F4F60160817181CE010E94902EA3
:103AC000EC01892B09F4B3C0F70160817181448155
:103AD0005581CE010E94322EF70184819581C80F55
:103AE000D91FE8CFB7FE02C04E0105C0FB01208000
:103AF0003180420143C0F60160817181C4010E949E
:103B0000902E2C01892B21F1320168187908A3012C
:103B1000B401CE010E94322EC60DD71DF70160817F
:103B2000718144815581CE010E94322EF70184813A
:103B30009581C80FD91FF60184809580840C951C4F
:103B4000F801848195818A0D9B1D95838483D3CF51
:103B5000B401CE01DF91CF911F910F91FF90EF90B3
:103B6000DF90CF90BF90AF909F908F907F906F909D
:103B70005F904F903F902F900C94612EB101CE0139
:103B80000E94902E009731F0EC01C60DD71D8A0CD3
:103B90009B1CF4CF8414950409F449C0F801828178
:103BA00093818815990530F4B401C8010E94C815A5
:103BB0008823E9F1F801448155814150510957FDAD
:103BC00036C0B601C8010E94801CEC0197FD2FC0D1
:103BD000F80180819181F601248135812C0F3D1FF0
:103BE000820F931FF80144815581421B530BBC0186
:103BF0008A0D9B1D0E943B2EF801848195818A0DC0
:103C00009B1D9583848320813181F901E80FF91F81
:103C10001082F80180819181F70160817181448176
:103C200055818C0F9D1F0E94322EAE01C6CFDF91B1
:103C3000CF911F910F91FF90EF90DF90CF90BF90A9
:103C4000AF909F908F907F906F905F904F903F903C
:103C50002F900895CF93DF93DC011496ED91FC91A2
:103C600015976E177F0728F54115510511F19F0132
:103C7000261B370B4217530708F49A01DB01EC01AE
:103C800088819981E21BF30BFD83EC83AF01461B16
:103C9000570B260F371FBC01620F731F8A0F9B1F24
:103CA0000E94762EE881F9818C819D81E80FF91FB1
:103CB0001082DF91CF9108954FEF5FEF0C942A1E91
:103CC000CF93DF93FC01C081D181209751F088818F
:103CD000882339F0082E000C990B0E94052E899339
:103CE000F6CFDF91CF910895CF93DF93FC01C08190
:103CF000D181209751F08881882339F0082E000C5B
:103D0000990B0E940D2E8993F6CFDF91CF910895E4
:103D1000AF92BF92CF92DF92EF92FF920F931F93D9
:103D2000CF93DF93DC01CD90DC901197C114D104C7
:103D300009F442C01496CD91DC9115972097E1F1DA
:103D40008C0156017501BFEFAB1ABB0AF7018081E8
:103D5000082E000C990B0E94FC2D892B99F72197B6
:103D6000CC0DDD1D8881082E000C990B0E94FC2DC6
:103D7000892B91F4AE014F5F5F4F4E195F09D80157
:103D800015965C934E931497CE14DF0450F4B7014C
:103D9000C6010E94322E05C0CE15DF0558F32197CB
:103DA000E1CFD801ED91FC91119714968D919C91E2
:103DB0001597E80FF91F1082DF91CF911F910F9196
:103DC000FF90EF90DF90CF90BF90AF900895FC01EF
:103DD00080819181009711F00C94D52D60E070E006
:103DE000CB010895FC0180819181009711F00C9422
:103DF000D12D60E070E0CB0108950C94F21EEF929B
:103E00000F93CF93DF93C82FD62F8CE0E82E01E0DD
:103E100020E43BE44CE450E06AE070E08C2F0E9428
:103E2000C425DEBD00000DB407FEFDCF8EB56AE0EF
:103E300070E08C2FDF91CF910F91EF900C941926A9
:103E4000EF920F93CF93DF93C82F8CE0E82E01E021
:103E500020E43BE44CE450E06AE070E08C2F0E94E8
:103E6000C4251EBC00000DB407FEFDCFDEB56AE020
:103E700070E08C2F0E9419268D2FDF91CF910F912A
:103E8000EF900895CF93DF93C82FD62F0E94BA25C5
:103E900061E083E00E94DC0183EB8093B00089E065
:103EA0008093B1001092B2008FE08093B30087E05E
:103EB0008093B40060E28C2F0E94FF1E61E98C2F7A
:103EC0000E94FF1EDD2311F061E101C060E18C2F33
:103ED0000E94FF1E64E48C2F0E94FF1EDD2311F060
:103EE00069E101C068E18C2F0E94FF1E8C2F0E94A7
:103EF000201F843459F081E080937C0461EB72E0F0
:103F000083ED93E0DF91CF910C946A23DF91CF9101
:103F1000089580917C040895CF92DF92EF92FF92F2
:103F20001F93CF93DF93D82F162F0E941F226B0170
:103F30007C010E941F22DC01CB018C199D09AE0976
:103F4000BF09C1E0893E9340A105B10508F4C0E076
:103F5000112311F069E001C068E08D2F0E94FF1E5F
:103F60008D2F0E94201F87FF03C0CC2311F302C0B6
:103F7000CC2331F081E080937C0480E090E016C097
:103F8000112311F069E301C068E38D2F0E94FF1E29
:103F90008D2F0E94201FC82F8D2F0E94201F2C2F95
:103FA00030E0322F2227A901482BCA01DF91CF919F
:103FB0001F91FF90EF90DF90CF900895CF93C82F7F
:103FC000662311F069E101C068E18C2F0E94FF1E99
:103FD0008C2F0E94201F8873869586958695CF9199
:103FE00008950F931F93CF93DF93683028F54423F0
:103FF00011F099E101C098E1042FD62F182F692FF5
:104000000E94FF1E812F0E94201F877C98E0D99F6D
:10401000B0011124C82FC62B002311F061E101C0AB
:1040200060E1812F0E94FF1E6C2F812FDF91CF91C5
:104030001F910F910C94FF1EDF91CF911F910F9153
:104040000895662311F069E001C068E00C94FF1E3A
:10405000CF93DF93EC01862F6883798361E00E9420
:10406000DC011B861A86188A198A1A8A1B8A88EC30
:1040700090E0A0E0B0E08A839B83AC83BD8380E2C4
:1040800093E0A0E0B0E08E839F83A887B98781E0AA
:1040900090E09F8B8E8BDF91CF9108950F931F93AC
:1040A000FC014283538364837583068317832087CF
:1040B00031871F910F91089521E030E0FC01378B8B
:1040C000268B0895FC01758B648B178A168A0895D8
:1040D00061E0FC0180810C94180260E0FC018081A9
:1040E0000C941802CF92DF92EF92FF920F931F93DE
:1040F000CF93DF93FC01268937892130310539F0D0
:10410000232B09F061C02489358937FD5DC0EC019E
:104110000E941F226C877D878E879F872A853B851B
:104120002130310531F5088919892A893B896B01CC
:104130007C01C01AD10AE20AF30A0A811B812C8190
:104140003D81C016D106E206F30608F447C01B867F
:104150001A86688B798B8A8B9B8B60E08881DF91D4
:10416000CF911F910F91FF90EF90DF90CF900C9423
:104170001802232B99F5088919892A893B896B0133
:104180007C01C01AD10AE20AF30A0E811F81288538
:104190003985C016D106E206F30600F121E030E0D1
:1041A0003B872A87688B798B8A8B9B8B61E0888120
:1041B0000E9418028E899F89892B81F48C899D89A0
:1041C00001979D8B8C8B0AC0DF91CF911F910F912E
:1041D000FF90EF90DF90CF900C946D20DF91CF9106
:1041E0001F910F91FF90EF90DF90CF900895611590
:1041F00071058105910511F00C94F92C0895CF9368
:10420000DF9300D000D0CDB7DEB761157105810511
:10421000910579F09B01AC0169833A834B835C8300
:104220000E94F42C29813A814B815C810E94C02834
:1042300003C060E070E0CB010F900F900F900F90E3
:10424000DF91CF910895CF92DF92EF92FF920F937B
:104250001F93621773078407950784F489019A01F5
:104260006B017C01C901B8016C197D098E099F0998
:104270000E94FF206C0D7D1D8E1D9F1D1F910F91B3
:10428000FF90EF90DF90CF9008954F925F926F92E2
:104290007F92AF92BF92CF92DF92EF92FF920F93F5
:1042A0001F93CF93DF93CDB7DEB729013A019B016E
:1042B000AC01241935094609570989899A89AB89BE
:1042C000BC89BC01CD016A197B098C099D090E943A
:1042D0008E28A801970124193509460957090E941B
:1042E000C028CA01B9016A0D7B1D8C1D9D1DDF917F
:1042F000CF911F910F91FF90EF90DF90CF90BF90E3
:10430000AF907F906F905F904F900895089570E008
:104310009B01382BC90108958AE00C94B502462F01
:10432000682F8AE00C9471020C94C6020C94C902A6
:104330000C94CC0260E089E00E94421F61E089E0B9
:104340000C94421F813611F460E003C0823621F4E0
:1043500061E089E00C948C1F80E090E008950C945B
:10436000891F813611F460E003C0823621F461E0D8
:1043700089E00C94DE1F80E008959FE9960F92304B
:1043800028F440E0682F89E00C94F11F089587E03D
:104390000C942A0187E00C943E010C94AB010E941E
:1043A000AB010C942C010C94B0011F920F920FB62C
:1043B0000F9211242F933F938F939F93AF93BF93AB
:1043C0008091950490919604A0919704B0919804DF
:1043D00030919D0423E0230F2D3720F40196A11D79
:1043E000B11D05C026E8230F0296A11DB11D209323
:1043F0009D048093950490939604A0939704B093A2
:1044000098048091990490919A04A0919B04B09192
:104410009C040196A11DB11D8093990490939A0468
:10442000A0939B04B0939C04BF91AF919F918F91F7
:104430003F912F910F900FBE0F901F9018952FB79F
:10444000F8946091950470919604809197049091EE
:1044500098042FBF08953FB7F894809199049091E4
:104460009A04A0919B04B0919C0426B5A89B05C01A
:104470002F3F19F00196A11DB11D3FBFBA2FA92FE3
:10448000982F8827820F911DA11DB11DBC01CD0160
:1044900042E0660F771F881F991F4A95D1F708954C
:1044A0008F929F92AF92BF92CF92DF92EF92FF9244
:1044B0006B017C010E942B224B015C01C114D104D1
:1044C000E104F10401F10E94830D0E942B22DC0122
:1044D000CB0188199909AA09BB09883E9340A10517
:1044E000B10560F321E0C21AD108E108F10888EEB5
:1044F000880E83E0981EA11CB11CC114D104E104F4
:10450000F10419F7DBCFFF90EF90DF90CF90BF90D1
:10451000AF909F908F9008958230910538F0880F6A
:10452000991F880F991F05970197F1F708957894BF
:1045300084B5826084BD84B5816084BD85B58260A8
:1045400085BD85B5816085BDEEE6F0E08081816046
:104550008083E1E8F0E01082808182608083808146
:1045600081608083E0E8F0E0808181608083E1EB1E
:10457000F0E0808184608083E0EBF0E08081816006
:104580008083EAE7F0E080818460808380818260BC
:1045900080838081816080838081806880831092A5
:1045A000C1000895CF92DF92EF92FF920F931F9375
:1045B000CF93DF936C017A018B01C0E0D0E0CE1580
:1045C000DF0589F0D8016D918D01D601ED91FC9147
:1045D0000190F081E02DC6010995892B11F47E012F
:1045E00002C02196ECCFC701DF91CF911F910F91AF
:1045F000FF90EF90DF90CF900895EF92FF920F938E
:104600001F93CF93DF938C017B01C0E0D0E0F701D3
:10461000EC0FFD1F6491662361F0D801ED91FC91D0
:104620000190F081E02DC8010995892B11F02196A8
:10463000EECFCE01DF91CF911F910F91FF90EF90C0
:104640000895DC01ED91FC91DB0114964D915C9194
:1046500015976D917C910280F381E02D09940C9463
:104660007928DC01ED91FC910190F081E02D099415
:10467000DB01ED91FC9111970190F081E02DBC01DF
:10468000CD01099469EC72E00C9479280F931F9383
:10469000CF93DF93EC010E94FD228C01CE010E949A
:1046A0004223800F911FDF91CF911F910F910895A9
:1046B0000F931F93CF93DF93EC010E9421238C0172
:1046C000CE010E944223800F911FDF91CF911F9155
:1046D0000F9108950F931F93CF93DF93EC010E94E6
:1046E00079288C01CE010E944223800F911FDF9117
:1046F000CF911F910F9108950F931F93CF93DF9345
:10470000EC010E9431238C01CE010E944223800FD4
:10471000911FDF91CF911F910F9108950F931F93D8
:10472000CF93DF93EC010E9438238C01CE010E94CD
:104730004223800F911FDF91CF911F910F91089518
:104740004F925F926F927F92EF92FF920F931F931F
:10475000CF93DF93CDB7DEB7A1970FB6F894DEBF46
:104760000FBECDBF7C01FA01CB0119A2223008F4A3
:104770002AE08E010F5D1F4F422E512C612C712CAF
:10478000BF01A30192010E949E28F901CA010150B4
:1047900011096A3014F4605D01C0695CD8016C9342
:1047A000232B242B252B61F7B801C7010E94792800
:1047B000A1960FB6F894DEBF0FBECDBFDF91CF91AB
:1047C0001F910F91FF90EF907F906F905F904F90AF
:1047D0000895CF92DF92EF92FF920F931F93CF93A2
:1047E000DF93EC016A017B012115310579F4E88141
:1047F000F9810190F081E02D642FDF91CF911F911D
:104800000F91FF90EF90DF90CF9009942A303105FF
:10481000E9F477FF1AC06DE20E9431238C0144272E
:104820005527BA014C195D096E097F092AE0CE01AE
:104830000E94A023800F911FDF91CF911F910F91B4
:10484000FF90EF90DF90CF9008952AE0B701A60186
:10485000CE01DF91CF911F910F91FF90EF90DF90EC
:10486000CF900C94A0239A01AB01770F660B770BC6
:104870000C94E9230F931F93CF93DF93EC019A01DC
:10488000AB01770F660B770B0E94E9238C01CE01F9
:104890000E944223800F911FDF91CF911F910F91B2
:1048A00008950F931F93CF93DF93EC010E94E923A8
:1048B0008C01CE010E944223800F911FDF91CF9186
:1048C0001F910F9108952115310541F4DC01ED91FF
:1048D000FC910190F081E02D642F09940C94A023A9
:1048E0009A01462F50E060E070E00C9463240F932F
:1048F0001F93CF93DF93EC019A01462F50E060E0C5
:1049000070E00E9463248C01CE010E944223800F3C
:10491000911FDF91CF911F910F9108959A01AB01E3
:1049200060E070E00C9463240F931F93CF93DF93A8
:10493000EC019A01AB0160E070E00E9463248C01FD
:10494000CE010E944223800F911FDF91CF911F91D2
:104950000F9108950F931F93CF93DF93EC010E9463
:1049600063248C01CE010E944223800F911FDF91AE
:10497000CF911F910F9108954F925F926F927F9206
:104980008F929F92AF92BF92CF92DF92EF92FF925F
:10499000CF93DF93EC016A017B01B22E9A01AB0148
:1049A000C701B6010E94542B882319F06CEC72E009
:1049B00027C026013701E89477F82FEF3FEF4FE744
:1049C0005FE7C301B2010E94542B81110DC02FEF8C
:1049D0003FEF4FE75FE7C301B2010E948A29181633
:1049E0001CF460ED72E00CC02FEF3FEF4FE75FE487
:1049F000C701B6010E94E22A18169CF464ED72E029
:104A0000CE01DF91CF91FF90EF90DF90CF90BF90DC
:104A1000AF909F908F907F906F905F904F900C948D
:104A200079282FEF3FEF4FE75FECC701B6010E94F7
:104A30008A2987FDE3CF20E030E0A901C701B60154
:104A40000E948A2987FF0AC06DE2CE010E943123AD
:104A50004C01F7FAF094F7F8F09402C0812C912CF5
:104A6000A12C60E070E080E09FE3AB1441F020E017
:104A700030E040E251E40E948F29A394F6CF9B01DD
:104A8000AC01C701B6010E941E292B013C010E9406
:104A9000012A6B017C010E94302A9B01AC01C301F9
:104AA000B2010E941D292B013C012AE0B701A60199
:104AB000CE010E94A0237C01E80CF91CBB2031F040
:104AC0006EE2CE010E943123E80EF91EDB2CDD20C0
:104AD00029F120E030E040E251E4C301B2010E943C
:104AE000E72A2B013C010E94012A4B01A12CB12C89
:104AF0002AE0B501A401CE010E94A023E80EF91E10
:104B0000C501B4010E94302A9B01AC01C301B2016E
:104B10000E941D292B013C01DA94D9CFC701DF91F6
:104B2000CF91FF90EF90DF90CF90BF90AF909F908C
:104B30008F907F906F905F904F9008950C94BC245D
:104B40000F931F93CF93DF93EC010E94BC248C0141
:104B5000CE010E944223800F911FDF91CF911F91C0
:104B60000F9108950C94792B0C94792B0C940E2CA6
:104B70000C940E2CCF93C82F61E00E94DC0161E001
:104B80008C2FCF910C9418028F929F92AF92BF926C
:104B9000EF920F93CF93DF93EB0160E0812C72E1F2
:104BA000972E7AE7A72EB12C281539054A055B0503
:104BB00040F4B694A794979487946F5F6630A1F7FA
:104BC00067E091E09627002311F030E501C030E75F
:104BD000492F46952E2D2C70E42EE22AE32A91705F
:104BE00020917204222399F04FB7F8942091720417
:104BF000213059F42DB3209370043DB320917104FA
:104C0000209523232DBB4FBF02C040937004ECBC02
:104C10009DBD60E00E941802BE0180E090E0DF913F
:104C2000CF910F91EF90BF90AF909F908F900C9489
:104C30005022CF93C82F80E090E00E94502261E084
:104C40008C2F0E94180280917204882361F09FB714
:104C5000F8942091720480917004213019F48DBB76
:104C60009FBF01C08FBFCF910895FC0170E09F01ED
:104C7000281B390B2617370714F41192F8CF089523
:104C80006F927F928F929F92AF92BF92CF92DF925C
:104C9000EF92FF920F931F93CF93DF93D22EC32EE9
:104CA000B42EA52E962E872E782E692EE801F801B7
:104CB000A0E0B0E0F12C8F010C1B1D0B0E151F05A1
:104CC00074F42D2D3C2D4B2D5A2D692D782D872DCB
:104CD000962D0A2F0E94EC2821931896ECCFDF9195
:104CE000CF911F910F91FF90EF90DF90CF90BF90E9
:104CF000AF909F908F907F906F900895EF92FF926A
:104D00000F931F93CF93DF937C018B0164EE72E0CE
:104D100083ED93E00E942F23E7010E0D1F1DC017A6
:104D2000D10771F065EF71E083ED93E00E942F23CE
:104D300069914AE050E083ED93E00E947024EFCF48
:104D400083ED93E0DF91CF911F910F91FF90EF9052
:104D50000C9442234F925F926F927F928F929F9218
:104D6000AF92BF92CF92DF92EF920F931F93CF93A8
:104D7000DF936C01EB0168E48FE994E00E94352633
:104D800010929E040E941F222B013C0184E0E82E19
:104D90000FE914E09201A30160E070E080E090E090
:104DA0000E94402600919E040C5F00939E0410E038
:104DB00001561B4FF60141A152A192E0E92E9A0142
:104DC00040E050E060E070E080E090E00E9440262B
:104DD00000919E040E5F00939E0410E001561B4F4D
:104DE000F60145A956A99A0140E050E060E070E064
:104DF00080E090E00E94402600919E040E5F0093A8
:104E00009E0410E001561B4F49A15AA19A0140E0AF
:104E100050E060E070E080E090E00E944026009169
:104E20009E040E5F00939E0410E001561B4F4DA997
:104E30005EA99A0140E050E060E070E080E090E020
:104E40000E94402600919E040E5F00939E040E94E3
:104E5000CD2110E001561B4F9C0140E050E060E086
:104E600070E080E090E00E94402600919E040E5F7A
:104E700000939E0480E00E94161410E001561B4F20
:104E80009C0140E050E060E070E080E090E00E9433
:104E9000402600919E040E5F00939E0410E0015690
:104EA0001B4FF601278DEE24E39430E040E050E004
:104EB00060E070E080E090E00E94402600919E0457
:104EC0000F5F00939E0410E001561B4F2F8D30E0C2
:104ED00040E050E060E070E080E090E00E9440261A
:104EE00080919E048F5F80939E04DF91CF911F91EC
:104EF0000F91EF90DF90CF90BF90AF909F908F90E9
:104F00007F906F905F904F90089540919E0450E085
:104F10006FE974E08DE793E00C94F00B0895823014
:104F2000E8F4E82FF0E0EE0FFF1FE358FE4F718327
:104F30006083813041F0809169008C7F482B4093E1
:104F40006900E89A089580916900440F551F440F45
:104F5000551F837F482B40936900E99A089582305A
:104F600078F4813011F0E89801C0E998E82FF0E07A
:104F7000EE0FFF1FE358FE4F8EE897E29183808388
:104F800008951F920F920FB60F9211242F933F9303
:104F90004F935F936F937F938F939F93AF93BF9341
:104FA000EF93FF93E0917D01F0917E010995FF91D0
:104FB000EF91BF91AF919F918F917F916F915F9191
:104FC0004F913F912F910F900FBE0F901F9018950A
:104FD0001F920F920FB60F9211242F933F934F936E
:104FE0005F936F937F938F939F93AF93BF93EF9351
:104FF000FF93E0917F01F09180010995FF91EF917E
:10500000BF91AF919F918F917F916F915F914F91E0
:105010003F912F910F900FBE0F901F9018958EBD4E
:1050200000000DB407FEFDCF8EB5089580E090E03E
:10503000089508958DE793E00C944F0CE3EDF3E0B1
:105040001382128288EE93E0A0E0B0E0848395831F
:10505000A683B7838DEB91E09183808385EC90E00C
:105060009587848784EC90E09787868780EC90E032
:10507000918B808B81EC90E0938B828B82EC90E023
:10508000958B848B86EC90E0978B868B118E128E9D
:10509000138E148E08950E9497220E94810D0E9403
:1050A0000815C1ECDDE00E9499152097E1F30E94FC
:1050B000C10DF9CFE5E7F4E08FEC91E091838083B7
:1050C0001282138214821582089562E070E081E4F6
:1050D00091E00E94282064E070E084E091E00C946C
:1050E00028200C94AA2E0C94C02E0C941C2F0C94E7
:1050F000EF2E6115710579F0FB0101900020E9F7B1
:105100003197AF01461B570BDC01ED91FC910280FA
:10511000F381E02D099480E090E00895DB018F9306
:105120009F930E94DF28BF91AF91A29F800D911D98
:10513000A39F900DB29F900D11240895A1E21A2E05
:10514000AA1BBB1BFD010DC0AA1FBB1FEE1FFF1F2B
:10515000A217B307E407F50720F0A21BB30BE40B7B
:10516000F50B661F771F881F991F1A9469F76095C2
:105170007095809590959B01AC01BD01CF0108957C
:10518000052E97FB1EF400940E94D72857FD07D0E8
:105190000E949E2807FC03D04EF40C94D72850950B
:1051A0004095309521953F4F4F4F5F4F0895909513
:1051B0008095709561957F4F8F4F9F4F08950E9406
:1051C0000E29A59F900DB49F900DA49F800D911D59
:1051D0001124089597FB10F8169400080F930830D7
:1051E00098F00850232F342F452F562F672F782FF4
:1051F000892F902DF4CF059497958795779567958E
:1052000057954795379527950A95AAF70F910895D1
:10521000EE0FFF1F0590F491E02D0994A29FB001BD
:10522000B39FC001A39F700D811D1124911DB29FDA
:10523000700D811D1124911D08955058BB27AA2778
:105240000E9435290C94A82A0E949A2A38F00E94BC
:10525000A12A20F039F49F3F19F426F40C94972AE0
:105260000EF4E095E7FB0C94912AE92F0E94B92AED
:1052700058F3BA17620773078407950720F079F48B
:10528000A6F50C94DB2A0EF4E0950B2EBA2FA02D78
:105290000B01B90190010C01CA01A0011124FF27E3
:1052A000591B99F0593F50F4503E68F11A16F040DE
:1052B000A22F232F342F4427585FF3CF46953795DD
:1052C0002795A795F0405395C9F77EF41F16BA0BA2
:1052D000620B730B840BBAF09150A1F0FF0FBB1F50
:1052E000661F771F881FC2F70EC0BA0F621F731F99
:1052F000841F48F4879577956795B795F7959E3FF6
:1053000008F0B0CF9395880F08F09927EE0F979586
:10531000879508950E946D2A08F481E008950E94FF
:10532000A3290C94A82A0E94A12A58F00E949A2A24
:1053300040F029F45F3F29F00C94912A51110C940C
:10534000DC2A0C94972A0E94B92A68F39923B1F3B6
:10535000552391F3951B550BBB27AA27621773079B
:10536000840738F09F5F5F4F220F331F441FAA1F2F
:10537000A9F335D00E2E3AF0E0E832D091505040EB
:10538000E695001CCAF72BD0FE2F29D0660F771F99
:10539000881FBB1F261737074807AB07B0E809F07F
:1053A000BB0B802DBF01FF2793585F4F3AF09E3F04
:1053B000510578F00C94912A0C94DC2A5F3FE4F3B9
:1053C000983ED4F3869577956795B795F7959F5F47
:1053D000C9F7880F911D9695879597F90895E1E093
:1053E000660F771F881FBB1F621773078407BA07F2
:1053F00020F0621B730B840BBA0BEE1F88F7E0954D
:1054000008950E94C12A88F09F5798F0B92F9927D4
:10541000B751B0F0E1F0660F771F881F991F1AF09F
:10542000BA95C9F714C0B13091F00E94DB2AB1E0FF
:1054300008950C94DB2A672F782F8827B85F39F0FE
:10544000B93FCCF3869577956795B395D9F73EF438
:1054500090958095709561957F4F8F4F9F4F0895E0
:10546000E89409C097FB3EF49095809570956195FE
:105470007F4F8F4F9F4F9923A9F0F92F96E9BB27B4
:105480009395F695879577956795B795F111F8CF30
:10549000FAF4BB0F11F460FF1BC06F5F7F4F8F4F9B
:1054A0009F4F16C0882311F096E911C0772321F091
:1054B0009EE8872F762F05C0662371F096E8862F29
:1054C00070E060E02AF09A95660F771F881FDAF780
:1054D000880F9695879597F90895990F0008550FAD
:1054E000AA0BE0E8FEEF16161706E807F907C0F06A
:1054F00012161306E407F50798F0621B730B840B72
:10550000950B39F40A2661F0232B242B252B21F44B
:1055100008950A2609F4A140A6958FEF811D811DEB
:10552000089597F99F6780E870E060E008959FEF25
:1055300080EC089500240A9416161706180609062A
:10554000089500240A9412161306140605060895F9
:10555000092E0394000C11F4882352F0BB0F40F481
:10556000BF2B11F460FF04C06F5F7F4F8F4F9F4FC1
:10557000089557FD9058440F551F59F05F3F71F043
:105580004795880F97FB991F61F09F3F79F08795AA
:105590000895121613061406551FF2CF4695F1DF33
:1055A00008C0161617061806991FF1CF86957105C3
:1055B000610508940895E894BB2766277727CB01F7
:1055C00097F908950E946D2A08F48FEF08950E94BC
:1055D000FA2A0C94A82A0E949A2A38F00E94A12A3A
:1055E00020F0952311F00C94912A0C94972A112401
:1055F0000C94DC2A0E94B92A70F3959FC1F3950F91
:1056000050E0551F629FF001729FBB27F00DB11D46
:10561000639FAA27F00DB11DAA1F649F6627B00DD6
:10562000A11D661F829F2227B00DA11D621F739FBF
:10563000B00DA11D621F839FA00D611D221F749FCD
:105640003327A00D611D231F849F600D211D822F14
:10565000762F6A2F11249F5750409AF0F1F088233B
:105660004AF0EE0FFF1FBB1F661F771F881F915068
:105670005040A9F79E3F510580F00C94912A0C945C
:10568000DC2A5F3FE4F3983ED4F3869577956795DF
:10569000B795F795E7959F5FC1F7FE2B880F911D92
:1056A0009695879597F908950E946D2A880B990B16
:1056B0000895EF920F931F93CF93DF93E80147FD77
:1056C00002C034E001C034E1E42F440FFF0BF7FFC8
:1056D00003C0F195E195F109E32E022F2E2FAE01C3
:1056E0000E94412FCE01DF91CF911F910F91EF903A
:1056F0000895CF93DF938230910510F482E090E01B
:10570000E091E904F091EA0420E030E0C0E0D0E06C
:10571000309711F14081518148175907C0F048175F
:10572000590761F482819381209719F09B838A83C2
:105730002BC09093EA048093E90426C0211531051B
:1057400019F04217530718F49A01BE01DF01EF0167
:105750000280F381E02DDCCF2115310509F1281BF2
:10576000390B2430310590F412968D919C9113974A
:105770006115710521F0FB019383828304C090932E
:10578000EA048093E904FD01329644C0FD01E20F72
:10579000F31F81939193225031092D933C933AC08A
:1057A0002091E7043091E804232B41F420918301F8
:1057B000309184013093E8042093E7042091810123
:1057C000309182012115310541F42DB73EB740914A
:1057D000850150918601241B350BE091E704F0917F
:1057E000E804E217F307A0F42E1B3F0B2817390734
:1057F00078F0AC014E5F5F4F2417350748F04E0F2D
:105800005F1F5093E8044093E7048193919302C093
:10581000E0E0F0E0CF01DF91CF9108950F931F9367
:10582000CF93DF93009709F48CC0FC013297138269
:1058300012820091E9041091EA040115110581F426
:1058400020813181820F931F2091E7043091E80479
:105850002817390779F5F093E804E093E70471C05D
:10586000D80140E050E0AE17BF0750F412962D91DA
:105870003C911397AD012115310509F1D901F3CF01
:105880009D01DA013383228360817181860F971F26
:105890008217930769F4EC0128813981260F371F9D
:1058A0002E5F3F4F318320838A819B819383828344
:1058B000452B29F4F093EA04E093E90442C01396DF
:1058C000FC93EE931297ED01499159919E01240F9B
:1058D000351FE217F30771F480819181840F951FC2
:1058E000029611969C938E938281938113969C933A
:1058F0008E931297E0E0F0E0D80112968D919C9182
:105900001397009719F0F8018C01F6CF8D919C91B7
:1059100098012E5F3F4F820F931F2091E704309133
:10592000E8042817390769F4309729F41092EA043B
:105930001092E90402C0138212821093E8040093CB
:10594000E704DF91CF911F910F9108958F929F925D
:10595000AF92BF92CF92DF92EF92FF92CF93DF93FD
:10596000EC01688179818A819B81611571058105CE
:10597000910521F464E279ED8BE597E02DE133EFB9
:1059800041E050E00E94C02849015A019B01AC014E
:10599000A7EAB1E40E94DF286B017C01ACEEB4EF12
:1059A000A50194010E943233DC01CB018C0D9D1DB9
:1059B000AE1DBF1DB7FF03C00197A109B048888382
:1059C0009983AA83BB83BC01CD019F77DF91CF91DF
:1059D000FF90EF90DF90CF90BF90AF909F908F900F
:1059E00008950E94A62C089587E891E00E94A62CB5
:1059F0000895609387017093880180938901909343
:105A00008A010895A0E0B0E0E8E0FDE20C943B33A9
:105A1000EC01009721F4CB010E94792BB8C0FC0166
:105A2000E60FF71F9C0122503109E217F30708F433
:105A3000ACC0D9010D911C91119706171707B0F052
:105A40000530110508F49FC0C80104978617970711
:105A500008F499C002501109061B170B019311930A
:105A60006D937C93CF010E940E2C8DC05B01A01A18
:105A7000B10A4C01800E911EA091E904B091EA0494
:105A800040E050E0E12CF12C109709F44AC0A81531
:105A9000B905D1F56D907C901197630182E0C80E35
:105AA000D11CCA14DB0480F1A3014A195B096A0105
:105AB00082E0C80ED11C1296BC9012971396AC913E
:105AC000B5E0CB16D10440F0B282A383518340836A
:105AD000D9016D937C930AC00E5F1F4FC301800FE5
