:100000000C9400010C94F7160C941E170C94280104
:100010000C9428010C9428010C9428010C94681667
:100020000C9428010C9428010C9428010C942801AC
:100030000C9428010C9428010C9428010C9428019C
:100040000C941A250C9428010C9486020C94B80286
:100050000C9428010C9428010C9428010C9428017C
:100060000C94ED230C94280102000000080002010A
:10007000000003040700000000000000000102046B
:10008000081020408001020408102001020408101A
:100090002004040404040404040202020202020311
:1000A00003030303030000000023002600290000CF
:1000B000000000250028002B00000000002400277D
:1000C000002A004E414E494E495459494E46CDCC26
:1000D000CC3D0AD7233C17B7D13877CC2B32959536
:1000E000E6241FB14F0A000020410000C842004032
:1000F0001C4620BCBE4CCA1B0E5AAEC59D740040A7
:100100007A10F35A00A0724E18090010A5D4E80026
:1001100000E87648170000E40B54020000CA9A3B3E
:10012000000000E1F50500008096980000004042C4
:100130000F000000A0860100000010270000000052
:10014000E803000000006400000000000A00000056
:1001500000000100000000002C76D888DC674F0802
:1001600023DFC1DFAE59E1B1B796E5E3E453C63A08
:10017000E651997696E8E6C28426EB898C9B62ED7F
:10018000407C6FFCEFBC9C9F40F2BAA56FA5F49039
:10019000055A2AF75C936B6CF9676DC11BFCE0E4B0
:1001A0000D47FEF520E6B500D0ED902E0300943506
:1001B00077050080841E080000204E0A000000C859
:1001C0000C333333330F986E12831141EF8D2114AA
:1001D000893BE65516CFFEE6DB18D1844B381BF77A
:1001E0007C1D901DA4BBE424203284725E22810019
:1001F000C9F124ECA1E53D27132840284B287B2892
:1002000011241FBECFEFD8E0DEBFCDBF12E0A0E0CB
:10021000B1E0E0EEF6E602C005900D92A23FB10714
:10022000D9F724E0A2EFB2E001C01D92AD3EB207C3
:10023000E1F710E0C0E0D1E004C02197FE010E9488
:100240000829CC3FD107C9F70E947F280C946E3350
:100250000C940000FC01918D228D892F90E0805C30
:100260009F4F821B91098F7399270895FC01918DEF
:10027000828D981731F0828DE80FF11D858D90E009
:1002800008958FEF9FEF0895FC01918D828D98174F
:1002900061F0828DDF01A80FB11D5D968C91928D6A
:1002A0009F5F9F73928F90E008958FEF9FEF089567
:1002B000FC01538D448D252F30E0842F90E0821B6C
:1002C000930B541710F0CF960895019708958EED73
:1002D00092E0892B49F080E090E0892B29F00E9480
:1002E000DE0281110C9400000895FC01848DDF0171
:1002F000A80FB11DA35ABF4F2C91848D90E0019699
:100300008F739927848FA689B7892C93A089B18987
:100310008C9180648C93938D848D981306C0028891
:10032000F389E02D80818F7D80830895CF93DF93C3
:10033000EC01888D8823C9F0EA89FB89808185FDDD
:1003400005C0A889B9898C9186FD0FC00FB607FC3E
:10035000F5CF808185FFF2CFA889B9898C9185FF7F
:10036000EDCFCE010E947501E7CFDF91CF910895C7
:10037000EF92FF920F931F93CF93DF93EC0181E0F5
:10038000888F9B8D8C8D981305C0E889F9898081B1
:1003900085FD24C0F62E0B8D10E00F5F1F4F0F73ED
:1003A0001127E02E8C8DE8120CC00FB607FCFACF97
:1003B000E889F989808185FFF5CFCE010E9475011A
:1003C000F1CF8B8DFE01E80FF11DE35AFF4FF08254
:1003D0000B8FEA89FB898081806207C0EE89FF89E3
:1003E0006083E889F98980818064808381E090E07E
:1003F000DF91CF911F910F91FF90EF900895CF92D1
:10040000DF92EF92FF921F93CF93DF93EC016A018B
:100410007B01122FE889F98982E080834115514ED2
:1004200061057105B1F060E079E08DE390E0A7012E
:1004300096010E949E28DA01C9010197A109B1091C
:10044000B695A79597958795AC01411580E158071A
:10045000A8F0E889F989108260E874E88EE190E0FC
:10046000A70196010E949E28BA01A9014150510995
:10047000610971097695679557954795EC85FD85D6
:100480005083EE85FF854083188EEC89FD891083AB
:10049000EA89FB89808180618083EA89FB89808188
:1004A00088608083EA89FB89808180688083EA890B
:1004B000FB8980818F7D8083DF91CF911F91FF9099
:1004C000EF90DF90CF900895CF93DF93EC01E88118
:1004D000F9810680F781E02D0995EA89FB89808101
:1004E0008F7E8083EA89FB898081877F8083EA8988
:1004F000FB8980818F778083EA89FB8980818F7D6A
:1005000080838A8D898FDF91CF9108951F920F92FA
:100510000FB60F9211242F938F939F93EF93FF9316
:10052000E0910203F09103038081E0910803F091D0
:10053000090382FD12C0908180910B038F5F8F733E
:1005400020910C03821751F0E0910B03F0E0EE5084
:10055000FD4F958F80930B0301C08081FF91EF9138
:100560009F918F912F910F900FBE0F901F90189514
:100570001F920F920FB60F9211242F933F934F9318
:100580005F936F937F938F939F93AF93BF93EF93FB
:10059000FF9382EF92E00E947501FF91EF91BF916E
:1005A000AF919F918F917F916F915F914F913F910B
:1005B0002F910F900FBE0F901F90189582EF92E031
:1005C0000E942A0121E0892B09F420E0822F08955E
:1005D000FC0170E09F01281B390B2617370714F424
:1005E0001192F8CF08956F927F928F929F92AF925F
:1005F000BF92CF92DF92EF92FF920F931F93CF9310
:10060000DF93D22EC32EB42EA52E962E872E782EB3
:10061000692EE801F801A0E0B0E0F12C8F010C1B7D
:100620001D0B0E151F0574F42D2D3C2D4B2D5A2D31
:10063000692D782D872D962D0A2F0E94EC28219365
:100640001896ECCFDF91CF911F910F91FF90EF9013
:10065000DF90CF90BF90AF909F908F907F906F90E2
:100660000895EF92FF920F931F93CF93DF937C0136
:100670008B016DE971E082EF92E00E94530CE7017B
:100680000E0D1F1DC017D10771F065ED71E082EFEF
:1006900092E00E94530C69914AE050E082EF92E0B0
:1006A0000E94940DEFCF82EF92E0DF91CF911F91E6
:1006B0000F91FF90EF900C94660C4F925F926F92A7
:1006C0007F928F929F92AF92BF92CF92DF92EF92E2
:1006D0000F931F93CF93DF936C01EB0168E480E9E4
:1006E00093E00E94E80210928F030E9464252B0180
:1006F0003C0184E0E82E00E913E09201A30160E0F0
:1007000070E080E090E00E94F30200918F030C5FA4
:1007100000938F0310E000571C4FF60141A152A136
:1007200092E0E92E9A0140E050E060E070E080E065
:1007300090E00E94F30200918F030E5F00938F03FD
:1007400010E000571C4FF60145A956A99A0140E058
:1007500050E060E070E080E090E00E94F3020091E1
:100760008F030E5F00938F0310E000571C4F49A1C9
:100770005AA19A0140E050E060E070E080E090E033
:100780000E94F30200918F030E5F00938F0310E02D
:1007900000571C4F4DA95EA99A0140E050E060E06F
:1007A00070E080E090E00E94F30200918F030E5F02
:1007B00000938F030E94EF0810E000571C4F9C012C
:1007C00040E050E060E070E080E090E00E94F302E2
:1007D00000918F030E5F00938F0380E00E941A2622
:1007E00010E000571C4F9C0140E050E060E070E0DA
:1007F00080E090E00E94F30200918F030E5F00936F
:100800008F0310E000571C4FF601278DEE24E39470
:1008100030E040E050E060E070E080E090E00E9476
:10082000F30200918F030F5F00938F0310E00057D6
:100830001C4F2F8D30E040E050E060E070E080E041
:1008400090E00E94F30280918F038F5F80938F036B
:10085000DF91CF911F910F91EF90DF90CF90BF90DC
:10086000AF909F908F907F906F905F904F90089582
:1008700040918F0350E060E973E08AE194E00C94CA
:1008800084218F929F92AF92BF92CF92DF92EF928C
:10089000FF920F931F93CF93DF937C018B016C0129
:1008A00082E0C80ED11C4701E5E08E0E911CC0E02D
:1008B000D0E0F60161916F014AE050E0C8010E946A
:1008C000940D5C016EE2C8010E94550C8A0D9B1DBF
:1008D000C80FD91FC814D90461F74AE050E0F701E6
:1008E0006581C8010E94940D8C0F9D1FDF91CF91EF
:1008F0001F910F91FF90EF90DF90CF90BF90AF903E
:100900009F908F9008952FEA31E0FC01318320837E
:10091000128213821482158208950F93FC018FEACC
:1009200091E09183808362834383248305830F91C5
:1009300008952FEA31E0FC01318320834283538301
:100940006483758308952FEA31E0FC0131832083AD
:10095000FB014081518162817381FC014283538399
:10096000648375830895DC0190E020E030E08AE044
:10097000FB014191BF01442309F150ED540F5A305E
:1009800088F4829FF001839FF00D11249F01205372
:100990003109240F311D47FD3A952F3F310541F3B1
:1009A00038F312C04E3281F4933071F0FD01E90F3B
:1009B000F11D22839F5F20E030E0DACF933021F4F5
:1009C00015962C9381E0089580E00895FB01408105
:1009D000518162817381FC014283538364837583F7
:1009E0000895FC01428353836483758308959B01BA
:1009F000BC016E5F7F4F44E050E0C9010E94252E8C
:100A000021E0892B09F020E0822F08952F923F9258
:100A10004F925F926F927F928F929F92AF92BF920E
:100A2000CF92DF92EF92FF920F931F93CF93DF93BA
:100A3000CDB7DEB76A970FB6F894DEBF0FBECDBF55
:100A40009A8F898F5B016A0179010E94642569830D
:100A50007A838B839C8361EB71E082EF92E00E944A
:100A60008E0C6CEB71E082EF92E00E948E0C298D6F
:100A70003A8D2F5F3F4F3E872D8704EF11E020E036
:100A800030E049E150E060E070E08D859E850E9495
:100A90001D092501612C712C00E010E0812C912CA6
:100AA00054011D821E821F821886C601A0E0B0E09C
:100AB000898B9A8BAB8BBC8B970140E050E02D8BE0
:100AC0003E8B4F8B588F89899A89AB89BC89841555
:100AD0009505A605B70508F4E7C00E9464256B01DB
:100AE0007C0129813A814B815C81C21AD30AE40AD4
:100AF000F50A8D859E850E944109A98DBA8D919632
:100B00004D925D926D927C929497B8ECCB16D10485
:100B1000E104F10450F4E98DFA8D6081842D0E9486
:100B2000B108812C912C5401CECFF8ECCF1AD1080A
:100B3000E108F10828ECC216D104E104F104C8F47C
:100B4000A98DBA8D8C910E94C408880E991EA11C93
:100B5000B11C0F5F1F4F980140E050E0C501B40188
:100B60000E949E28E98DFA8D25AB36AB47AB50AF7E
:100B7000AACF980140E050E0C501B4010E949E2830
:100B800029833A834B835C8349015A01C301B20133
:100B90000E948E286B017C012D813E814F815885FA
:100BA000261737074807590760F489869A86AB8667
:100BB000BC866D837E838F839887342C252C6F862B
:100BC000788A89819A81AB81BC818F3F9F4FA10533
:100BD000B10540F0E2E0F0E0A98DBA8D9096FC936B
:100BE000EE935F970E94BA08882341F0E4E0F0E0BA
:100BF000A98DBA8D9096FC93EE935F972AE030E032
:100C0000B301A20182EF92E00E94870D64ED71E0D2
:100C100082EF92E00E94530C2AE030E049815A8131
:100C20006B817C8182EF92E00E94870D64ED71E020
:100C300082EF92E00E94530C2AE030E0B701A60157
:100C400082EF92E00E94870D64ED71E082EF92E006
:100C50000E94530CA98DBA8D5F966D917C919097EF
:100C60004AE050E082EF92E00E94570D64ED71E09F
:100C700082EF92E00E94530CE98DFA8D608182EF41
:100C800092E00E94A00C0E94642569837A838B8382
:100C90009C832D893E894F89588D420E531E641EB8
:100CA000751E00E010E00FCF82EF92E00E94660C0C
:100CB00067ED71E082EF92E00E94530C2AE030E091
:100CC00049855A856B857C8582EF92E00E94870D6D
:100CD0006FED71E082EF92E00E94530C2AE030E069
:100CE000432D522D6F85788982EF92E00E94870D07
:100CF00069EE71E082EF92E00E94530CA98DBA8DEB
:100D00005F966D917C9190974AE050E082EF92E07F
:100D10000E945E0D29853A854B855C85223331051D
:100D20004105510540F483E090E0A98DBA8D90967D
:100D30009C938E935F97E98DFA8D31A222A22F8525
:100D400023A3388934A3608180E06A960FB6F894B3
:100D5000DEBF0FBECDBFDF91CF911F910F91FF90EE
:100D6000EF90DF90CF90BF90AF909F908F907F904B
:100D70006F905F904F903F902F900C94B1084F92DE
:100D80005F926F927F928F929F92AF92BF92CF921B
:100D9000DF92EF92FF920F931F93CF93DF93EC01BB
:100DA0000E946425C9ACDAACEBACFCAC2F8D38A149
:100DB0002330310509F4A2C12D8D3E8D243131053A
:100DC00008F09CC1DC01CB018C199D09AE09BF095B
:100DD0006C017D0108ECC01AD108E108F10818EC9B
:100DE000C116D104E104F10418F4688189A134C06A
:100DF0006C017D0120E9C21A21E0D20AE108F10864
:100E000038ECC316D104E104F104A8F488810E94EF
:100E1000C4084DA55EA56FA578A9480F591F611D8F
:100E2000711D4DA75EA76FA778AB898D9A8D01962E
:100E30009A8F898F82C16C017D0108E5C01A02E09A
:100E4000D00AE108F10818ECC116D104E104F1045C
:100E5000A8F489A168818F5FDF91CF911F910F91D5
:100E6000FF90EF90DF90CF90BF90AF909F908F90CA
:100E70007F906F905F904F900C94B1086C017D0152
:100E800020E2C21A23E0D20AE108F10838ECC316C6
:100E9000D104E104F104A8F488810E94C40849A99E
:100EA0005AA96BA97CA9480F591F611D711D49AB37
:100EB0005AAB6BAB7CAB8B8D9C8D01969C8F8B8FD3
:100EC0003CC1883E9340A105B10508F436C1298D87
:100ED0003A8D40E050E06DA57EA58FA598A90E94AF
:100EE0009E282DA73EA74FA758ABC9A0DAA0EBA01C
:100EF000FCA0C701B6010E948E284B015C016DA3C6
:100F00007EA38FA398A71A8E198E2B8D3C8D40E05F
:100F100050E069A97AA98BA99CA90E949E2829ABB7
:100F20003AAB4BAB5CAB260137011FEF411A510ABC
:100F3000610A710AC301B2010E948E2869A77AA7CB
:100F40008BA79CA71C8E1B8E9E012F5F3F4F861682
:100F50009706A806B90638F449A25AA26BA27CA249
:100F600062E070E00BC081E0C81AD108E108F10826
:100F7000C9A2DAA2EBA2FCA261E070E0C9010E9462
:100F800031098DA19EA1AFA1B8A5892B8A2B8B2BEE
:100F900019F481E090E00BC08DA59EA5AFA5B8A97E
:100FA0008F3F9F40A105B10550F082E090E098A3EB
:100FB0008F8F8D8D9E8D01969E8F8D8F0BC00E9481
:100FC000BA08882319F084E090E0F1CF18A21F8EB0
:100FD0001E8E1D8E49A15AA16BA17CA12AE030E092
:100FE00082EF92E00E94870D64ED71E082EF92E063
:100FF0000E94530C4DA55EA56FA578A92AE030E0AC
:1010000082EF92E00E94870D64ED71E082EF92E042
:101010000E94530C4DA15EA16FA178A52AE030E09B
:1010200082EF92E00E94870D64ED71E082EF92E022
:101030000E94530C6F8D78A14AE050E082EF92E05D
:101040000E94570D64ED71E082EF92E00E94530C14
:1010500080E00E941A264AE050E0BC0182EF92E054
:101060000E94570D64ED71E082EF92E00E94530CF4
:101070000E94F108AB01BC0122E030E082EF92E077
:101080000E94C20E64ED71E082EF92E00E94530C68
:10109000688182EF92E00E94550C82EF92E00E94FC
:1010A000660C49A95AA96BA97CA98DA59EA5AFA5D7
:1010B000B8A98A019B01080F191F2A1F3B1FC901EC
:1010C000B8010E94302A20E030E040E05FE30E9457
:1010D000E72A0E94012A6DAB7EAB8FAB98AF0E94CE
:1010E000642569AF7AAF8BAF9CAF1DA61EA61FA665
:1010F00018AA19AA1AAA1BAA1CAA1FC0219604EF93
:1011000011E020E030E044EF51E060E070E0CE011B
:101110000E941D09CE01DF91CF911F910F91FF9089
:10112000EF90DF90CF90BF90AF909F908F907F9087
:101130006F905F904F900C942B09DF91CF911F918E
:101140000F91FF90EF90DF90CF90BF90AF909F9066
:101150008F907F906F905F904F9008958AE00C94ED
:10116000B30A462F682F8AE00C946F0A0C94C40AC5
:101170000C94C70A0C94CA0A60E089E00E94100B24
:1011800061E089E00C94100B813611F460E003C03B
:10119000823621F461E089E00C945A0B80E090E003
:1011A00008950C94570B813611F460E003C0823629
:1011B00021F461E089E00C94AC0B80E008959FE994
:1011C000960F923028F440E0682F89E00C94BF0B12
:1011D000089587E00C94411387E00C9455130C9408
:1011E000C2130E94C2130C9443130C94C713CF93E1
:1011F000DF93EC01862F6883798361E00E94BF262C
:101200001B861A86188A198A1A8A1B8A88EC90E02B
:10121000A0E0B0E08A839B83AC83BD8380E293E04F
:10122000A0E0B0E08E839F83A887B98781E090E03B
:101230009F8B8E8BDF91CF9108950F931F93FC01AD
:1012400042835383648375830683178320873187A2
:101250001F910F91089521E030E0FC01378B268B20
:101260000895FC01758B648B178A168A089561E0D6
:10127000FC0180810C94FB2660E0FC0180810C94D1
:10128000FB26CF92DF92EF92FF920F931F93CF93A3
:10129000DF93FC01268937892130310539F0232B72
:1012A00009F061C02489358937FD5DC0EC010E94D9
:1012B00064256C877D878E879F872A853B852130B3
:1012C000310531F5088919892A893B896B017C012F
:1012D000C01AD10AE20AF30A0A811B812C813D81DE
:1012E000C016D106E206F30608F447C01B861A862C
:1012F000688B798B8A8B9B8B60E08881DF91CF91A3
:101300001F910F91FF90EF90DF90CF900C94FB26F0
:10131000232B99F5088919892A893B896B017C015E
:10132000C01AD10AE20AF30A0E811F812885398585
:10133000C016D106E206F30600F121E030E03B875B
:101340002A87688B798B8A8B9B8B61E088810E94CE
:10135000FB268E899F89892B81F48C899D89019731
:101360009D8B8C8B0AC0DF91CF911F910F91FF90C5
:10137000EF90DF90CF900C943C09DF91CF911F91BB
:101380000F91FF90EF90DF90CF900895EF92FF9232
:101390000F931F93CF93DF9326E040E855E260E080
:1013A00070E082EF92E00E94FF010E94D60E6AE098
:1013B00070E08AE194E00E94102268E374E08AE120
:1013C00094E00E94AB2264EF71E082EF92E00E9411
:1013D0008E0C0E94AE080E94BC080E94E90867E0DB
:1013E00072E082EF92E00E948E0C21E030E044E651
:1013F00050E060E070E08DE391E00E940605CDE3EF
:10140000D1E0688189A10E94B10821E030E044E682
:1014100050E060E070E080E091E00E94060580E02E
:10142000E82E81E0F82EF701608181A10E94B108C9
:1014300082EF92E00E94660C6BE172E082EF92E034
:101440000E948E0C67E372E082EF92E00E948E0CA5
:1014500002E310E020E030E042E350E060E070E0C2
:101460008EE391E00E941D0902E310E020E030E0ED
:1014700042E350E060E070E081E091E00E941D09ED
:101480000E946425F70161AF72AF83AF94AF69AF7B
:101490007AAF8BAF9CAF6DE672E082EF92E0DF91A6
:1014A000CF911F910F91FF90EF900C948E0C8DE3D4
:1014B00091E00E94BF0680E091E00E94BF068EE3AB
:1014C00091E00E94410981E091E00E9441090E945F
:1014D000EC0860E071E08DE391E00C945D03EF9225
:1014E0000F931F93CF93DF93182F1092F60380E191
:1014F000689FE00111244F7D413439F0423411F4EA
:10150000D06803C082E08093F60390917A019F7DBA
:101510009C3411F4D06207C0983411F4DF7D03C00D
:1015200083E08093F6038091F603811101C0D061BE
:10153000E12C01E020E03DE241E351E06AE070E0AF
:10154000812F0E94610F8D2F0E9457288C2F0E949F
:1015500057286AE070E0812FDF91CF911F910F91A2
:10156000EF900C94B60FCF93C82F1092F6030E9401
:10157000570F41E660E08C2F0E946F0A42E660E060
:101580008C2FCF910C946F0A80937A0108958091EB
:101590007A0108958091F6030895EF920F93CF9307
:1015A000DF93C82FD62F8CE0E82E01E020E43BE447
:1015B0004CE450E06AE070E08C2F0E94610FDEBDC9
:1015C00000000DB407FEFDCF8EB56AE070E08C2FF1
:1015D000DF91CF910F91EF900C94B60FEF920F9394
:1015E000CF93DF93C82F8CE0E82E01E020E43BE4AA
:1015F0004CE450E06AE070E08C2F0E94610F1EBC4A
:1016000000000DB407FEFDCFDEB56AE070E08C2F60
:101610000E94B60F8D2FDF91CF910F91EF9008951B
:10162000CF93DF93C82FD62F0E94570F61E083E03E
:101630000E94BF2683EB8093B00089E08093B100C5
:101640001092B2008FE08093B30087E08093B400E3
:1016500060E28C2F0E94CD0A61E98C2F0E94CD0A96
:10166000DD2311F061E101C060E18C2F0E94CD0A01
:1016700064E48C2F0E94CD0ADD2311F069E101C0E2
:1016800068E18C2F0E94CD0A8C2F0E94EE0A8434D0
:1016900059F081E08093F70361E972E082EF92E014
:1016A000DF91CF910C948E0CDF91CF9108958091B2
:1016B000F7030895CF92DF92EF92FF921F93CF939B
:1016C000DF93D82F162F0E9464256B017C010E94A6
:1016D0006425DC01CB018C199D09AE09BF09C1E06D
:1016E000893E9340A105B10508F4C0E0112311F033
:1016F00069E001C068E08D2F0E94CD0A8D2F0E9405
:10170000EE0A87FF03C0CC2311F302C0CC2331F0D3
:1017100081E08093F70380E090E016C0112311F080
:1017200069E301C068E38D2F0E94CD0A8D2F0E94CE
:10173000EE0AC82F8D2F0E94EE0A2C2F30E0322F98
:101740002227A901482BCA01DF91CF911F91FF9059
:10175000EF90DF90CF900895CF93C82F662311F0BC
:1017600069E101C068E18C2F0E94CD0A8C2F0E9494
:10177000EE0A8873869586958695CF9108950F9386
:101780001F93CF93DF93683028F5442311F099E13C
:1017900001C098E1042FD62F182F692F0E94CD0A7F
:1017A000812F0E94EE0A877C98E0D99FB001112416
:1017B000C82FC62B002311F061E101C060E1812F29
:1017C0000E94CD0A6C2F812FDF91CF911F910F9135
:1017D0000C94CD0ADF91CF911F910F91089566234C
:1017E00011F069E001C068E00C94CD0ACF92DF925D
:1017F000EF92FF920F931F93CF93DF936C017A01C7
:101800008B01C0E0D0E0CE15DF0589F0D8016D91E5
:101810008D01D601ED91FC910190F081E02DC60182
:101820000995892B11F47E0102C02196ECCFC701E6
:10183000DF91CF911F910F91FF90EF90DF90CF90AC
:101840000895EF92FF920F931F93CF93DF938C0134
:101850007B01C0E0D0E0F701EC0FFD1F649166232F
:1018600061F0D801ED91FC910190F081E02DC8016B
:101870000995892B11F02196EECFCE01DF91CF9102
:101880001F910F91FF90EF900895DC01ED91FC9175
:10189000DB0114964D915C9115976D917C910280BE
:1018A000F381E02D09940C945E28DC01ED91FC910C
:1018B0000190F081E02D0994DB01ED91FC911197ED
:1018C0000190F081E02DBC01CD01099469EA72E03C
:1018D0000C945E280F931F93CF93DF93EC010E942B
:1018E000210C8C01CE010E94660C800F911FDF91AC
:1018F000CF911F910F9108950F931F93CF93DF9373
:10190000EC010E94450C8C01CE010E94660C800FF8
:10191000911FDF91CF911F910F9108950F931F9306
:10192000CF93DF93EC010E945E288C01CE010E94D0
:10193000660C800F911FDF91CF911F910F91089539
:101940000F931F93CF93DF93EC010E94550C8C01F2
:10195000CE010E94660C800F911FDF91CF911F91E5
:101960000F9108950F931F93CF93DF93EC010E9483
:101970005C0C8C01CE010E94660C800F911FDF91E0
:10198000CF911F910F9108954F925F926F927F9226
:10199000EF92FF920F931F93CF93DF93CDB7DEB7F4
:1019A000A1970FB6F894DEBF0FBECDBF7C01FA0140
:1019B000CB0119A2223008F42AE08E010F5D1F4FDF
:1019C000422E512C612C712CBF01A30192010E9467
:1019D0009E28F901CA01015011096A3014F4605DB2
:1019E00001C0695CD8016C93232B242B252B61F754
:1019F000B801C7010E945E28A1960FB6F894DEBF19
:101A00000FBECDBFDF91CF911F910F91FF90EF904F
:101A10007F906F905F904F900895CF92DF92EF92FA
:101A2000FF920F931F93CF93DF93EC016A017B0129
:101A30002115310579F4E881F9810190F081E02DDB
:101A4000642FDF91CF911F910F91FF90EF90DF9066
:101A5000CF9009942A303105E9F477FF1AC06DE27E
:101A60000E94550C8C0144275527BA014C195D0979
:101A70006E097F092AE0CE010E94C40C800F911FDD
:101A8000DF91CF911F910F91FF90EF90DF90CF905A
:101A900008952AE0B701A601CE01DF91CF911F91F1
:101AA0000F91FF90EF90DF90CF900C94C40C9A01AF
:101AB000AB01770F660B770B0C940D0D0F931F93F3
:101AC000CF93DF93EC019A01AB01770F660B770B95
:101AD0000E940D0D8C01CE010E94660C800F911F9B
:101AE000DF91CF911F910F9108950F931F93CF9383
:101AF000DF93EC010E940D0D8C01CE010E94660C5B
:101B0000800F911FDF91CF911F910F9108952115A3
:101B1000310541F4DC01ED91FC910190F081E02D63
:101B2000642F09940C94C40C9A01462F50E060E095
:101B300070E00C94870D0F931F93CF93DF93EC010C
:101B40009A01462F50E060E070E00E94870D8C0102
:101B5000CE010E94660C800F911FDF91CF911F91E3
:101B60000F9108959A01AB0160E070E00C94870D2D
:101B70000F931F93CF93DF93EC019A01AB0160E0C9
:101B800070E00E94870D8C01CE010E94660C800FD0
:101B9000911FDF91CF911F910F9108950F931F9384
:101BA000CF93DF93EC010E94870D8C01CE010E9440
:101BB000660C800F911FDF91CF911F910F910895B7
:101BC0004F925F926F927F928F929F92AF92BF924D
:101BD000CF92DF92EF92FF92CF93DF93EC016A01F5
:101BE0007B01B22E9A01AB01C701B6010E94542BB2
:101BF000882319F06CEA72E027C026013701E894C7
:101C000077F82FEF3FEF4FE75FE7C301B2010E9484
:101C1000542B81110DC02FEF3FEF4FE75FE7C3015A
:101C2000B2010E948A2918161CF460EB72E00CC005
:101C30002FEF3FEF4FE75FE4C701B6010E94E22AB2
:101C400018169CF464EB72E0CE01DF91CF91FF9007
:101C5000EF90DF90CF90BF90AF909F908F907F904C
:101C60006F905F904F900C945E282FEF3FEF4FE7FF
:101C70005FECC701B6010E948A2987FDE3CF20E00F
:101C800030E0A901C701B6010E948A2987FF0AC076
:101C90006DE2CE010E94550C4C01F7FAF094F7F872
:101CA000F09402C0812C912CA12C60E070E080E0C7
:101CB0009FE3AB1441F020E030E040E251E40E94A9
:101CC0008F29A394F6CF9B01AC01C701B6010E94F6
:101CD0001E292B013C010E94012A6B017C010E94FC
:101CE000302A9B01AC01C301B2010E941D292B01C6
:101CF0003C012AE0B701A601CE010E94C40C7C0180
:101D0000E80CF91CBB2031F06EE2CE010E94550CAC
:101D1000E80EF91EDB2CDD2029F120E030E040E266
:101D200051E4C301B2010E94E72A2B013C010E9449
:101D3000012A4B01A12CB12C2AE0B501A401CE014E
:101D40000E94C40CE80EF91EC501B4010E94302A9D
:101D50009B01AC01C301B2010E941D292B013C0172
:101D6000DA94D9CFC701DF91CF91FF90EF90DF9048
:101D7000CF90BF90AF909F908F907F906F905F902B
:101D80004F9008950C94E00D0F931F93CF93DF9322
:101D9000EC010E94E00D8C01CE010E94660C800FC8
:101DA000911FDF91CF911F910F910895CF93CFB7DE
:101DB000F8948091FB03811127C0EBE9F0E0849156
:101DC000E7E8F0E09491E82FF0E0EE0FFF1FE75412
:101DD000FF4FA591B491EC91E92321F461E08AE0F1
:101DE0000E94FB2661E08AE00E94BF268CB58061DC
:101DF0008CBD8CB580648CBD61E08DE00E94BF26F7
:101E000061E08BE00E94BF268091FB038F5F80938F
:101E1000FB03CFBFCF9108959FB7F8948091FB0348
:101E2000882319F081508093FB038091FB0381117B
:101E300005C08CB58F7B8CBD1092FA039FBF0895AF
:101E40009FB7F894882349F0813011F482E006C0EE
:101E500082E08093FA0380E001C081E02091F903E1
:101E6000822B8093F9038091FA03811103C081E0F2
:101E70008093FA039FBF08959091FA039230B1F0D6
:101E80002FB7F894882321F0813021F482E003C039
:101E900081E001C080E080959091F90389238093CF
:101EA000F903811102C01092FA032FBF0895CF9356
:101EB000C82F61E00E94BF2661E08C2FCF910C9467
:101EC000FB268F929F92AF92BF92EF920F93CF9388
:101ED000DF93EB0160E0812C72E1972E7AE7A72E69
:101EE000B12C281539054A055B0540F4B694A79432
:101EF000979487946F5F6630A1F767E091E096272B
:101F0000002311F030E501C030E7492F46952E2D12
:101F10002C70E42EE22AE32A91702091FA03222306
:101F200099F04FB7F8942091FA03213059F42DB36A
:101F30002093F8033DB32091F903209523232DBB73
:101F40004FBF02C04093F803ECBC9DBD60E00E940F
:101F5000FB26BE0180E090E0DF91CF910F91EF90E2
:101F6000BF90AF909F908F900C949525CF93C82FE2
:101F700080E090E00E94952561E08C2F0E94FB2676
:101F80008091FA03882361F09FB7F8942091FA03B7
:101F90008091F803213019F48DBB9FBF01C08FBF22
:101FA000CF9108950F931F93CF93DF93EC010E947D
:101FB0006425688779878A879B87E881F98102840D
:101FC000F385E02DCE01099597FF17C00E94642587
:101FD000088519852A853B85DC01CB01801B910B87
:101FE000A20BB30B0C811D812E813F8180179107BD
:101FF000A207B30710F38FEF9FEFDF91CF911F91EF
:102000000F9108950F931F93CF93DF93EC010E94DC
:102010006425688779878A879B87E881F9810484AA
:10202000F585E02DCE01099597FF17C00E94642524
:10203000088519852A853B85DC01CB01801B910B26
:10204000A20BB30B0C811D812E813F81801791075C
:10205000A207B30710F38FEF9FEFDF91CF911F918E
:102060000F910895FF920F931F93CF93DF93EC018D
:102070008B01F42ECE010E9402109C0197FD0BC033
:102080008D32910541F0C0970A9728F0FF2029F082
:102090002E32310511F4C9011DC001301105C1F006
:1020A0000230110569F42D30310551F034F4295016
:1020B00031092230310520F00BC02032310541F4C6
:1020C000E881F9810284F385E02DCE010995D2CF14
:1020D0008FEF9FEFDF91CF911F910F91FF900895A8
:1020E000FC01448355836683778308958F929F9282
:1020F000AF92BF92CF92DF92FF920F931F93CF9335
:10210000DF9300D000D0CDB7DEB78C01B42E40E015
:102110000E943210FC0197FD4CC020E030E0A90184
:10212000F12CCB2CBB0CDD08EC15FD05F1F0ED32EC
:10213000F105C9F0CF01C0970A97B8F4AAE0B0E062
:102140000E94DF284F01FF0FAA08BB08DC01CB016A
:10215000880D991DAA1DBB1D9C01AD01205331099D
:102160004109510902C0FF24F394D801ED91FC917B
:102170000284F385E02DC80129833A834B835C8375
:102180000995C8010E940210FC01C09729813A817B
:102190004B815C810A9740F2EC15FD0529F2FF2086
:1021A00061F066277727CB01621B730B840B950BBD
:1021B00006C060E070E0CB0102C0CA01B9010F9017
:1021C0000F900F900F90DF91CF911F910F91FF9083
:1021D000DF90CF90BF90AF909F908F9008954F92D7
:1021E0005F926F927F92AF92BF92CF92DF92EF9207
:1021F000FF920F931F93CF93DF935C01042F41E075
:102200000E943210FC0197FD6EC0412C512C80E8D9
:10221000682E8FE3782EC12CD12C7601C0E0D0E05F
:10222000002E000C110BE017F10769F1ED32F105FA
:1022300039F1EE32F10531F1CF01C0970A9718F567
:10224000AAE0B0E0A70196010E94DF286F01FF0F0E
:10225000EE08FF08C60ED71EE81EF91E80E3C81A56
:10226000D108E108F108CC2371F02DEC3CEC4CECEA
:102270005DE3C301B2010E94E72A2B013C0103C0C8
:10228000D1E001C0C1E0D501ED91FC910284F3855C
:10229000E02DC5010995C5010E940210FC01C097FF
:1022A0000A9708F2EE32F10519F4CC2309F4BBCFFA
:1022B000E017F10709F4B7CFC701B601DD2339F004
:1022C00090958095709561957F4F8F4F9F4FCC2350
:1022D00039F00E94322AA30192010E94E72A06C027
:1022E0000E94322A03C060E070E0CB01DF91CF9101
:1022F0001F910F91FF90EF90DF90CF90BF90AF9024
:102300007F906F905F904F900895CF92DF92EF9201
:10231000FF920F931F93CF93DF936C017A018B0190
:10232000C0E0D0E0CE15DF0561F0C6010E94D20FFB
:1023300097FF02C07E0105C0F80181938F012196AD
:10234000F1CFC701DF91CF911F910F91FF90EF90D7
:10235000DF90CF900895AF92BF92CF92DF92EF922D
:10236000FF920F931F93CF93DF9321153105D1F087
:1023700079015C016A01C0E0D0E0062F660F110B05
:10238000C5010E94D20F97FF02C0CE010DC0801779
:102390009107D9F3F60181936F012196CE15DF05E0
:1023A00079F7F3CF80E090E0DF91CF911F910F910B
:1023B000FF90EF90DF90CF90BF90AF9008950F9374
:1023C0001F93CF93DF93EC018B016BEA72E00E94C5
:1023D0004818C8010E94D20F97FD05C0682FCE0192
:1023E0000E947A1AF6CFCE01DF91CF911F910F9103
:1023F0000895EF92FF920F931F93CF93DF93EC0119
:102400007B01042F6BEA72E00E944818C7010E940A
:10241000D20F002E000C110B97FD0BC080179107F7
:1024200041F0682FCE010E947A1AC7010E94D20F94
:10243000F3CFCE01DF91CF911F910F91FF90EF90DD
:1024400008954F925F926F927F928F929F92AF9278
:10245000BF92CF92DF92EF92FF920F931F93CF9391
:10246000DF938C01EB0186E0849F4001859F900CF7
:102470001124860E971EFB01E815F90508F58281E7
:102480009381892B21F13696F7CF60817181448148
:102490005581DB01A40FB51F2C91022E000C330BCC
:1024A0008217930711F54F5F5F4F55834483228155
:1024B00033814217530759F03696E815F90528F38A
:1024C000C8010E94D20F97FD46C0FE01F6CFEC1B5B
:1024D000FD0BF595E7952BEA3AEAE29FC001E39FF1
:1024E000900DF29F900D112438C04115510521F334
:1024F000C480D58096012150310935832483DB01C6
:10250000A20FB31FAC910A2E000CBB0B8A179B07BE
:10251000F9F421153105C9F05B017A01E21AF30AD9
:10252000E60EF71E412C512CD5016D905D01D701AF
:102530007D907D01671006C0BFEF4B1A5B0A421603
:10254000530690F34216530699F6D582C482B4CF4F
:10255000232B71F6B1CF8FEF9FEFDF91CF911F91BA
:102560000F91FF90EF90DF90CF90BF90AF909F9032
:102570008F907F906F905F904F900895CF93DF93EF
:1025800000D000D000D0CDB7DEB7FE01319626E0F6
:10259000DF011D922A95E9F77A8369835C834B8377
:1025A00041E050E0BF010E94211221E0892B09F097
:1025B00020E0822F26960FB6F894DEBF0FBECDBF67
:1025C000DF91CF9108950C94BE12FB010190002081
:1025D000E9F73197AF01461B570B0C94BE12FF92DF
:1025E0000F931F93CF93DF93CDB7DEB72C970FB622
:1025F000F894DEBF0FBECDBF2115310521F40E9436
:10260000BE12282F19C0FE013196ACE0FA2EDF0170
:102610001D92FA94E9F77A8369835C834B83388748
:102620002F831A87098742E050E0BF010E942112E0
:1026300021E0892B09F020E0822F2C960FB6F89428
:10264000DEBF0FBECDBFDF91CF911F910F91FF90E5
:1026500008950F931F939A01FA0101900020E9F762
:1026600031978F01041B150BFB0101900020E9F746
:102670003197AF01461B570B0E94EF121F910F912C
:1026800008950C94570F23E0969587952A95E1F7C6
:10269000BC01990F880B990B0E94322A20E030E090
:1026A00040E85DE30E94E72A0895CF92DF92EF921F
:1026B000FF920F931F93CF93DF93182F0E946425EF
:1026C000C090FE03D090FF03E0900004F09001045E
:1026D000DC01CB018C199D09AE09BF0981399140FC
:1026E000A105B10540F1E12C01E020EC3FEC4AE608
:1026F00050E06AE070E0812F0E94610F1EBC000074
:102700000DB407FEFDCF0EB51EBC00000DB407FED4
:10271000FDCFCEB56AE070E0812F0E94B60FD0E009
:10272000D02B0E9464256093FE037093FF03809377
:10273000000490930104DE3388F081E08093FD0370
:1027400064EC72E082EF92E0DF91CF911F910F91E4
:10275000FF90EF90DF90CF900C948E0CC2FD05C0DF
:10276000109203041092020404C0D0930304C09397
:102770000204DF91CF911F910F91FF90EF90DF90B6
:10278000CF90089580910204909103040895809160
:10279000FD0308953F924F925F926F927F928F92C6
:1027A0009F92AF92BF92CF92DF92EF92FF920F93E0
:1027B0001F93CF93DF9300D000D0CDB7DEB79091B9
:1027C0007B01981721F09F3F09F036C204C0E8E66C
:1027D000F0E0349081C080937B01E8E6F0E0E49182
:1027E000EF3F09F429C2E13031F1E23009F44BC086
:1027F000E11171C014BC15BC94B5926094BD95B53F
:10280000916095BDA82FB0E0FD01EF56FF4FE49118
:10281000F0E0EE0FFF1FE155FF4F0591149110936B
:10282000140400931304FD01E358FF4FE491E09377
:102830001204312C53C010928000109281009091AC
:1028400081009860909381009091810091609093B5
:102850008100A82FB0E0FD01EF56FF4FE491F0E0BA
:10286000EE0FFF1FE155FF4F0591149110930D04DA
:1028700000930C04FD01E358FF4FE491E0930B0437
:10288000332433942BC01092B0001092B100909179
:10289000B00092609093B0009091B10091609093DD
:1028A000B100A82FB0E0FD01EF56FF4FE491F0E03A
:1028B000EE0FFF1FE155FF4F059114911093060491
:1028C00000930504FD01E358FF4FE491E0930404F5
:1028D00002E0302E03C03E2E37FCAEC129013A0182
:1028E0008B0161E00E94BF264801A12CB12C832DF1
:1028F0008D7F09F0BBC060E072E18AE790E0A5013E
:1029000094010E949E2829833A834B835C8369014A
:102910007A0121E0C21AD108E108F1088FEFC81648
:10292000D104E104F10409F008F44CC060E472E45D
:102930008FE090E0A50194010E949E2869017A0130
:10294000E1E0CE1AD108E108F108F2E03F1220C020
:102950002FEFC216D104E104F10409F008F46AC1B2
:1029600060E970ED83E090E0A50194010E949E284B
:1029700069017A0181E0C81AD108E108F108EFEF96
:10298000CE16D104E104F10409F0D0F583E067C06C
:10299000FFEFCF16D104E104F104B1F0A8F068E430
:1029A00078EE81E090E0A50194010E949E286901E3
:1029B0007A0181E0C81AD108E108F108332009F44E
:1029C000DFC02FC181E001C082E03320A1F047C009
:1029D00089819A81AB81BC812AE0B695A7959795AC
:1029E00087952A95D1F76C017D0121E0C21AD108A3
:1029F000E108F10885E095B5987F892B85BD6FC00A
:102A000068E478EE81E090E0A50194010E949E28A0
:102A100069017A01F1E0CF1AD108E108F1082FEF3E
:102A2000C216D104E104F10409F008F4A7C064E27D
:102A300074EF80E090E0A50194010E949E28690156
:102A40007A01E1E0CE1AD108E108F108FFEFCF16D4
:102A5000D104E104F10411F008F0B4C085E09091D4
:102A6000B100987F892B8093B10039C060E072E19A
:102A70008AE790E0A50194010E949E2869017A01ED
:102A800081E0C81AD108E108F108C114D104E1E0DD
:102A9000EE06F10488F068E478EE81E090E0A501AC
:102AA00094010E949E2869017A01F1E0CF1AD108B1
:102AB000E108F10893E001C091E021E032120FC07B
:102AC00080918100887F892B80938100411451047B
:102AD0006104710449F42FEF3FEFA9012DC04114A7
:102AE00051046104710471F0D801AA0FBB1FA30146
:102AF00092010E94DF2828EE33E040E050E00E947F
:102B00009E2803C02FEF3FEFA90181E03816A1F006
:102B1000E2E03E1619F131108FC0C7BC20931504B6
:102B200030931604409317045093180480916E005C
:102B3000826080936E0080C0D0928900C09288002D
:102B400020930E0430930F0440931004509311040B
:102B500080916F00826080936F006EC0C092B3005E
:102B600020930704309308044093090450930A0407
:102B7000809170008260809370005EC084E06FCFAF
:102B8000FFEFCF16D104E104F104D1F0C8F062E107
:102B90007AE780E090E0A50194010E949E286901F7
:102BA0007A0181E0C81AD108E108F108EFEFCE16EA
:102BB000D104E104F10411F008F00ACF84E01BCF46
:102BC00083E019CF62E17AE780E090E0A50194010B
:102BD0000E949E2869017A0181E0C81AD108E108A3
:102BE000F108EFEFCE16D104E104F104C1F0B8F022
:102BF00089819A81AB81BC814AE0B695A79597956A
:102C000087954A95D1F76C017D0121E0C21AD10860
:102C1000E108F108332009F4EDCE87E020CF86E00B
:102C2000D4CEFFEFCF16D104E104F10409F050F641
:102C300084E0CBCE82E013CF0F900F900F900F90D7
:102C4000DF91CF911F910F91FF90EF90DF90CF9088
:102C5000BF90AF909F908F907F906F905F904F90BC
:102C60003F900895813039F018F0823051F0089586
:102C700010926E00089580916F008D7F80936F0099
:102C80000895809170008D7F8093700081E0809323
:102C9000B0008091B100887F84608093B100109271
:102CA000B3000895CF93C82F80917B018C1307C088
:102CB000E8E6F0E0E4918FEF80937B0101C0EFEF55
:102CC0008E2F0E94321660E08C2FCF910C94FB2641
:102CD0001F920F920FB60F9211242F933F934F9391
:102CE0005F936F937F938F939F93AF93BF93EF9374
:102CF000FF938091070490910804A0910904B0917A
:102D00000A04892B8A2B8B2B51F180910404E091CA
:102D10000504F0910604908189278083809107043F
:102D200090910804A0910904B0910A04181619069C
:102D30001A061B06C4F48091070490910804A09120
:102D40000904B0910A040197A109B109809307040D
:102D500090930804A0930904B0930A0404C08091DE
:102D60007B010E945216FF91EF91BF91AF919F910D
:102D70008F917F916F915F914F913F912F910F9024
:102D80000FBE0F901F90189508958230E8F4E82F39
:102D9000F0E0EE0FFF1FE458FE4F71836083813037
:102DA00041F0809169008C7F482B40936900E89A3C
:102DB000089580916900440F551F440F551F837F6C
:102DC000482B40936900E99A0895823078F4813065
:102DD00011F0E89801C0E998E82FF0E0EE0FFF1F2E
:102DE000E458FE4F84EC96E19183808308951F920E
:102DF0000F920FB60F9211242F933F934F935F932F
:102E00006F937F938F939F93AF93BF93EF93FF93B2
:102E1000E0917C01F0917D010995FF91EF91BF91C7
:102E2000AF919F918F917F916F915F914F913F9162
:102E30002F910F900FBE0F901F9018951F920F9219
:102E40000FB60F9211242F933F934F935F936F937D
:102E50007F938F939F93AF93BF93EF93FF93E091F3
:102E60007E01F0917F010995FF91EF91BF91AF91A4
:102E70009F918F917F916F915F914F913F912F9192
:102E80000F900FBE0F901F90189561157105810569
:102E9000910511F00C94F92C0895CF93DF9300D095
:102EA00000D0CDB7DEB7611571058105910579F0C8
:102EB0009B01AC0169833A834B835C830E94F42CB1
:102EC00029813A814B815C810E94C02803C060E067
:102ED00070E0CB010F900F900F900F90DF91CF918A
:102EE0000895CF92DF92EF92FF920F931F93621794
:102EF00073078407950784F489019A016B017C01AB
:102F0000C901B8016C197D098E099F090E944D17EE
:102F10006C0D7D1D8E1D9F1D1F910F91FF90EF90D9
:102F2000DF90CF9008954F925F926F927F92AF9211
:102F3000BF92CF92DF92EF92FF920F931F93CF93A6
:102F4000DF93CDB7DEB729013A019B01AC0124190B
:102F500035094609570989899A89AB89BC89BC0119
:102F6000CD016A197B098C099D090E948E28A80150
:102F7000970124193509460957090E94C028CA013A
:102F8000B9016A0D7B1D8C1D9D1DDF91CF911F9195
:102F90000F91FF90EF90DF90CF90BF90AF907F9018
:102FA0006F905F904F900895089570E09B01382BCB
:102FB000C9010895FC01808191810C940E2CCF935E
:102FC000DF93EC0188819981009711F00E940E2C0B
:102FD000198218821D821C821B821A82DF91CF9176
:102FE00008950F931F93CF93DF93EC018B016F5FD5
:102FF0007F4F888199810E94022D009731F099833B
:1030000088831B830A8381E001C080E0DF91CF9138
:103010001F910F910895CF93DF93EC0188819981DF
:10302000892B29F08A819B818617970760F4CE014E
:103030000E94F117882341F08C819D81892B19F41E
:10304000E881F981108281E0DF91CF910895EF92BC
:10305000FF920F931F93CF93DF93EC017B018A01C3
:10306000BA010E940B18811104C0CE010E94DF1723
:1030700007C01D830C83B701888199810E94612E4E
:10308000CE01DF91CF911F910F91FF90EF900895A6
:10309000FC01118210821382128215821482611542
:1030A000710551F0FB0101900020E9F73197AF0164
:1030B000461B570B0C9427180895EF92FF920F931D
:1030C0001F93CF93DF93EC017B018A01BA010E9429
:1030D0000B18811104C0CE010E94DF1707C01D83A9
:1030E0000C83B701888199810E94152ECE01DF9152
:1030F000CF911F910F91FF90EF900895CF93DF93A1
:10310000EC01FB018617970761F060817181611501
:10311000710529F0448155810E94271802C00E9440
:10312000DF17CE01DF91CF910895FC01118210824B
:1031300013821282158214820C947E18CF93DF932F
:10314000EC016115710559F0FB0101900020E9F7D0
:103150003197AF01461B570B0E94271802C00E94EF
:10316000DF17CE01DF91CF910895CF93DF9300D089
:10317000CDB7DEB7FC011182108213821282158254
:10318000148269831A82BE016F5F7F4F0E949E186E
:103190000F900F90DF91CF9108950F931F93CF93CE
:1031A000DF93CDB7DEB729970FB6F894DEBF0FBE19
:1031B000CDBF8C01862FF8011182108213821282FA
:1031C0001582148250E0BE016F5F7F4F90E00E9435
:1031D0001C2FBE016F5F7F4FC8010E949E18299669
:1031E0000FB6F894DEBF0FBECDBFDF91CF911F9118
:1031F0000F9108950F931F93CF93DF93CDB7DEB751
:1032000062970FB6F894DEBF0FBECDBF8C01CB0125
:10321000F80111821082138212821582148250E00A
:10322000BE016F5F7F4F0E94AA2EBE016F5F7F4F6E
:10323000C8010E949E1862960FB6F894DEBF0FBEBA
:10324000CDBFDF91CF911F910F9108950F931F93E1
:10325000CF93DF93CDB7DEB761970FB6F894DEBF9B
:103260000FBECDBF8C01CB01F801118210821382F9
:1032700012821582148250E0BE016F5F7F4F0E9460
:103280001C2FBE016F5F7F4FC8010E949E18619680
:103290000FB6F894DEBF0FBECDBFDF91CF911F9167
:1032A0000F9108950F931F93CF93DF93CDB7DEB7A0
:1032B000A2970FB6F894DEBF0FBECDBF8C01CB0135
:1032C000BA01F801118210821382128215821482CF
:1032D00030E0AE014F5F5F4F0E94C02EBE016F5FB6
:1032E0007F4FC8010E949E18A2960FB6F894DEBFC9
:1032F0000FBECDBFDF91CF911F910F9108950F9316
:103300001F93CF93DF93CDB7DEB7A1970FB6F89495
:10331000DEBF0FBECDBF8C01CB01BA01F801118217
:103320001082138212821582148230E0AE014F5F48
:103330005F4F0E94EF2EBE016F5F7F4FC8010E945A
:103340009E18A1960FB6F894DEBF0FBECDBFDF91D9
:10335000CF911F910F910895EF92FF920F931F93BA
:10336000CF93DF93CDB7DEB7A1970FB6F894DEBF4A
:103370000FBECDBF7C01CB01BA01F70111821082D3
:10338000138212821582148242E0420F8E010F5F77
:103390001F4F0E94592BBC01C7010E949E18A19685
:1033A0000FB6F894DEBF0FBECDBFDF91CF911F9156
:1033B0000F91FF90EF900895EF92FF920F931F935C
:1033C000CF93DF93CDB7DEB7A1970FB6F894DEBFEA
:1033D0000FBECDBF7C01CB01BA01F7011182108273
:1033E000138212821582148242E0420F8E010F5F17
:1033F0001F4F0E94592BBC01C7010E949E18A19625
:103400000FB6F894DEBF0FBECDBFDF91CF911F91F5
:103410000F91FF90EF9008950F931F93CF93DF9339
:1034200000D0CDB7DEB78C016115710561F0CB011D
:1034300069837A830E941C2EAC0169817A81C8015C
:103440000E945D1802C00E94DF17C8010F900F9004
:10345000DF91CF911F910F910895FC01118210828D
:1034600013821282158214820C940C1AEF92FF922E
:103470000F931F93CF93DF93FC0124813581611556
:10348000710511F480E019C041155105A9F07B01C7
:10349000EC018A01020F131FB8010E940B18882348
:1034A00089F3288139818C819D81B701820F931F17
:1034B0000E94612E1D830C8381E0DF91CF911F91CB
:1034C0000F91FF90EF900895FB0144815581608139
:1034D00071810C94361A6115710551F0FB01019050
:1034E0000020E9F73197AF01461B570B0C94361AB1
:1034F00080E00895CF93DF9300D0CDB7DEB7698326
:103500001A8241E050E0BE016F5F7F4F0E94361A81
:103510000F900F90DF91CF910895EF92FF920F934C
:103520001F93CF93DF9300D000D0CDB7DEB77C01DF
:10353000862F4AE050E08E010F5F1F4FB80190E0E8
:103540000E94AA2EF80101900020E9F73197AF01FF
:10355000401B510BB801C7010E94361A0F900F9003
:103560000F900F90DF91CF911F910F91FF90EF90EF
:103570000895EF92FF920F931F93CF93DF93CDB7F0
:10358000DEB728970FB6F894DEBF0FBECDBF7C0123
:10359000CB014AE050E08E010F5F1F4FB8010E943F
:1035A000AA2EF80101900020E9F73197AF01401BE6
:1035B000510BB801C7010E94361A28960FB6F8942D
:1035C000DEBF0FBECDBFDF91CF911F910F91FF9056
:1035D000EF900895EF92FF920F931F93CF93DF9395
:1035E000CDB7DEB727970FB6F894DEBF0FBECDBFBD
:1035F0007C01CB014AE050E08E010F5F1F4FB80104
:103600000E941C2FF80101900020E9F73197AF01CB
:10361000401B510BB801C7010E94361A27960FB6FE
:10362000F894DEBF0FBECDBFDF91CF911F910F91F8
:10363000FF90EF900895EF92FF920F931F93CF9317
:10364000DF93CDB7DEB72E970FB6F894DEBF0FBE6F
:10365000CDBF7C01CB01BA012AE030E08E010F5FC3
:103660001F4FA8010E94C02EF80101900020E9F729
:103670003197AF01401B510BB801C7010E94361AA8
:103680002E960FB6F894DEBF0FBECDBFDF91CF915F
:103690001F910F91FF90EF900895EF92FF920F937B
:1036A0001F93CF93DF93CDB7DEB72D970FB6F89466
:1036B000DEBF0FBECDBF7C01CB01BA012AE030E0F6
:1036C0008E010F5F1F4FA8010E94EF2EF80101909D
:1036D0000020E9F73197AF01401B510BB801C7013A
:1036E0000E94361A2D960FB6F894DEBF0FBECDBFDE
:1036F000DF91CF911F910F91FF90EF900895EF927E
:10370000FF920F931F93CF93DF93CDB7DEB76497EC
:103710000FB6F894DEBF0FBECDBF7C01CB01BA015E
:103720008E010F5F1F4F22E044E00E94592BBC0125
:10373000FC0101900020E9F73197AF01481B590BBC
:10374000C7010E94361A64960FB6F894DEBF0FBE0A
:10375000CDBFDF91CF911F910F91FF90EF90089512
:10376000EF92FF920F931F93CF93DF93CDB7DEB706
:1037700064970FB6F894DEBF0FBECDBF7C01CB01BE
:10378000BA018E010F5F1F4F22E044E00E94592BC7
:10379000BC01FC0101900020E9F73197AF01481B03
:1037A000590BC7010E94361A64960FB6F894DEBF13
:1037B0000FBECDBFDF91CF911F910F91FF90EF9082
:1037C0000895EF92FF920F931F93CF93DF936115AC
:1037D000710511F480E01EC08B01EC01CB010E9449
:1037E0001C2E0097B1F02C813D817C01E20EF31E6E
:1037F000B701CE010E940B18882361F3288139811B
:103800008C819D81B801820F931F0E94152EFD822D
:10381000EC8281E0DF91CF911F910F91FF90EF90AB
:103820000895CF93DF93EC01FB01448155816081C2
:1038300071810E94361A811103C0CE010E94DF17E8
:10384000CE01DF91CF910895CF93DF93EC01611505
:10385000710561F0FB0101900020E9F73197AF019C
:10386000461B570B0E94361A811103C0CE010E94DD
:10387000DF17CE01DF91CF910895CF93DF93EC0155
:103880000E947A1A811103C0CE010E94DF17CE0177
:10389000DF91CF910895CF93DF93EC010E948D1AB1
:1038A000811103C0CE010E94DF17CE01DF91CF91BD
:1038B0000895CF93DF93EC010E94B91A811103C0E0
:1038C000CE010E94DF17CE01DF91CF910895CF93F3
:1038D000DF93EC010E94EA1A811103C0CE010E941D
:1038E000DF17CE01DF91CF910895CF93DF93EC01E5
:1038F0000E941B1B811103C0CE010E94DF17CE0165
:10390000DF91CF910895CF93DF93EC010E944D1B7F
:10391000811103C0CE010E94DF17CE01DF91CF914C
:103920000895CF93DF93EC010E947F1B811103C0A8
:10393000CE010E94DF17CE01DF91CF910895CF9382
:10394000DF93EC010E94B01B811103C0CE010E94E5
:10395000DF17CE01DF91CF910895CF93DF93EC0174
:103960000E94E11B811103C0CE010E94DF17CE012E
:10397000DF91CF910895CF93DF93DC01ED91FC911E
:10398000EB01A881B981309711F01097C9F4109715
:1039900059F0EB012C813D81232B31F08C9190E08B
:1039A00091958195910914C0309781F0DC011496AE
:1039B0008D919C911597892B49F0808190E008C0EA
:1039C000BD01CF01DF91CF910C94582E80E090E0A3
:1039D000DF91CF910895FC0144815581FB01248141
:1039E00035814217530729F40E94BB1C21E0892B23
:1039F00009F020E0822F0895FC0124813581232BDA
:103A000031F421E061157105A1F0FB0108C0FC0152
:103A1000808191816115710531F421E0FC01808183
:103A2000882339F005C00E94582E21E0892B09F027
:103A300020E0822F08950E94BB1C892F881F8827B1
:103A4000881F08950E94BB1C21E0181619060CF06F
:103A500020E0822F08950E94BB1C21E01816190651
:103A60000CF420E0822F08950E94BB1C892F8095C2
:103A7000881F8827881F0895EF92FF920F931F9346
:103A8000CF93DF938617970729F1FC0124813581B5
:103A9000FB014481558124173507F1F4232BD1F024
:103AA000DC01CD91DC91008111818991882391F015
:103AB000082E000C990B0E94052E7C01F8018191C3
:103AC0008F01082E000C990B0E94052EE816F906AE
:103AD00061F302C081E001C080E0DF91CF911F91CE
:103AE0000F91FF90EF900895DB011496ED91FC91FA
:103AF0001597DC0114962D913C9115972E1B3F0BC9
:103B000024173507A0F02D913C912115310579F04E
:103B1000DB016D917C916115710549F0CA01AF011E
:103B2000820F931F0E94682E21E0892B09F020E06C
:103B3000822F0895FC0144815581FB012481358148
:103B40004217530720F040E050E00C94741D80E0D1
:103B50000895FC0124813581FB014481558124179E
:103B60003507A0F0FC0180819181009779F0FB017D
:103B7000608171816115710549F0241B350B820F3D
:103B8000931F0E94582E21E0892B09F020E0822FFC
:103B90000895FC01248135816217730730F4808118
:103BA0009181FC01E60FF71F40830895FC012481F9
:103BB00035816217730720F480819181009729F481
:103BC0001092190489E194E00895860F971F0895D3
:103BD000FC01248135816217730748F4808191814B
:103BE000009729F0FC01E60FF71F8081089580E01F
:103BF00008950C94E81D0F931F93CF93DF93411505
:103C0000510519F16115710501F1DC011496ED9171
:103C1000FC9115972E173F0718F0FB01108215C075
:103C2000E21BF30BEA012197EC17FD0708F4EF0103
:103C30008B01FC0160817181620F731FAE01C801AD
:103C40000E94762EC00FD11F1882DF91CF911F9155
:103C50000F910895CF93DF93FC01248135814217A2
:103C6000530778F4C081D181062E000C770BCE016A
:103C7000840F951F0E944D2E009719F08C1B9D0BF1
:103C800002C08FEF9FEFDF91CF91089540E050E0A9
:103C90000C942A1ECF93DF93FC01248135814217B7
:103CA000530780F4FB01DC01CD91DC9160817181CF
:103CB000CE01840F951F0E94902E009719F08C1B47
:103CC0009D0B02C08FEF9FEFDF91CF91089540E0F1
:103CD00050E00C944A1EDF92EF92FF920F931F93D5
:103CE000CF93DF93DC0114962D913C9115974217E9
:103CF000530718F08FEF9FEF1DC08C01EA0121964A
:103D0000DC01ED91FC911197EC0FFD1FD08010822A
:103D1000ED90FC90062E000C770BC7010E94852EBB
:103D2000CE0DDF1DD882009729F3F8012081318163
:103D3000821B930BDF91CF911F910F91FF90EF901A
:103D4000DF900895FC0144815581415051090C9444
:103D50006B1EAF92BF92CF92DF92EF92FF920F93C2
:103D60001F93CF93DF937B018A01FB01448155812F
:103D70004115510561F1FC01248135812115310581
:103D800031F12417350718F10217130718F08901CC
:103D900001501109FC01A080B180C501DFEFCFEF18
:103DA0006501C00ED11EC816D906A0F0F7016081CA
:103DB00071810E94902E009769F09C012A193B099D
:103DC0000217130710F0D22FC32F0196ECCF8FEFFD
:103DD0009FEF02C08D2F9C2FDF91CF911F910F91EC
:103DE000FF90EF90DF90CF90BF90AF900895FC01CF
:103DF00044815581FB0124813581421B530B0C9476
:103E0000A91EBF92CF92DF92EF92FF920F931F9362
:103E1000CF93DF937C016B018A01E90124173507F9
:103E200020F4812F8901C42FD82F6BEA72E0C701DB
:103E30000E944818D60114968D919C9115970817E9
:103E40001907D0F48C179D0708F4EC01D601ED9109
:103E5000FC911197EC0FFD1FB08010824D915C9189
:103E6000BA01600F711FC7010E949E18D601ED9123
:103E7000FC91EC0FFD1FB082C701DF91CF911F9124
:103E80000F91FF90EF90DF90CF90BF900895DC01ED
:103E9000ED91FC91309729F40895861301C0408379
:103EA000319680818111F9CF08952F923F924F92E0
:103EB0005F926F927F928F929F92AF92BF92CF92BA
:103EC000DF92EF92FF920F931F93CF93DF93FC014A
:103ED000448055804114510409F4D2C0FB01648030
:103EE00075806114710409F4CBC07A016B018C01F7
:103EF000FA01A480B580A618B708FC01C081D18161
:103F0000A114B104C1F4F60160817181CE010E9457
:103F1000902EEC01892B09F4B3C0F7016081718107
:103F200044815581CE010E94322EF7018481958112
:103F3000C80FD91FE8CFB7FE02C04E0105C0FB0174
:103F400020803180420143C0F60160817181C4014B
:103F50000E94902E2C01892B21F1320168187908DA
:103F6000A301B401CE010E94322EC60DD71DF70168
:103F70006081718144815581CE010E94322EF7010A
:103F800084819581C80FD91FF60184809580840CA7
:103F9000951CF801848195818A0D9B1D95838483EE
:103FA000D3CFB401CE01DF91CF911F910F91FF903C
:103FB000EF90DF90CF90BF90AF909F908F907F90C9
:103FC0006F905F904F903F902F900C94612EB101B5
:103FD000CE010E94902E009731F0EC01C60DD71D46
:103FE0008A0C9B1CF4CF8414950409F449C0F80191
:103FF000828193818815990530F4B401C8010E942B
:10400000F1178823E9F1F8014481558141505109A4
:1040100057FD36C0B601C8010E94A91EEC0197FDEC
:104020002FC0F80180819181F601248135812C0F08
:104030003D1F820F931FF80144815581421B530B92
:10404000BC018A0D9B1D0E943B2EF8018481958145
:104050008A0D9B1D9583848320813181F901E80FAE
:10406000F91F1082F80180819181F70160817181CF
:10407000448155818C0F9D1F0E94322EAE01C6CF08
:10408000DF91CF911F910F91FF90EF90DF90CF9034
:10409000BF90AF909F908F907F906F905F904F9068
:1040A0003F902F900895CF93DF93DC011496ED910C
:1040B000FC9115976E177F0728F54115510511F1F1
:1040C0009F01261B370B4217530708F49A01DB01A7
:1040D000EC0188819981E21BF30BFD83EC83AF0136
:1040E000461B570B260F371FBC01620F731F8A0F29
:1040F0009B1F0E94762EE881F9818C819D81E80FBB
:10410000F91F1082DF91CF9108954FEF5FEF0C946C
:104110005320CF93DF93FC01C081D181209751F0D0
:104120008881882339F0082E000C990B0E94052EF7
:104130008993F6CFDF91CF910895CF93DF93FC0160
:10414000C081D181209751F08881882339F0082ED1
:10415000000C990B0E940D2E8993F6CFDF91CF9121
:104160000895AF92BF92CF92DF92EF92FF920F939A
:104170001F93CF93DF93DC01CD90DC901197C11496
:10418000D10409F442C01496CD91DC911597209783
:10419000E1F18C0156017501BFEFAB1ABB0AF701C3
:1041A0008081082E000C990B0E94FC2D892B99F719
:1041B0002197CC0DDD1D8881082E000C990B0E94E3
:1041C000FC2D892B91F4AE014F5F5F4F4E195F09B3
:1041D000D80115965C934E931497CE14DF0450F4D7
:1041E000B701C6010E94322E05C0CE15DF0558F377
:1041F0002197E1CFD801ED91FC91119714968D9103
:104200009C911597E80FF91F1082DF91CF911F91B4
:104210000F91FF90EF90DF90CF90BF90AF900895F7
:10422000FC0180819181009711F00C94D52D60E004
:1042300070E0CB010895FC0180819181009711F01D
:104240000C94D12D60E070E0CB0108950C941B21FB
:1042500080914E0490E020914F04821B91090895B3
:1042600090914F0480914E04981750F4E92FF0E09C
:10427000E05BFB4F208130E09F5F90934F0402C0D2
:104280002FEF3FEFC9010895E0914F0480914E0454
:10429000E81730F4F0E0E05BFB4F808190E0089598
:1042A0008FEF9FEF08950895AC01E0912604F091FF
:1042B00027043097E1F090914F0480914E049817B5
:1042C000B0F090E0292F30E02617370754F4DA01D8
:1042D000A20FB31F8C91D901A05BBB4F8C939F5F42
:1042E000F1CF10924F0460934E04CB0109940895CE
:1042F000E0912804F0912904309729F010922C04C1
:1043000010922B0409940895CF92DF92EF92FF92BE
:104310000F931F93CF93DF937C01262F972F8A0152
:1043200080912A04882391F0C62FD72F6E01C40EE6
:10433000D51ECC15DD0571F06991D701ED91FC9189
:104340000190F081E02DC7010995F3CF642F822FF2
:104350000E94A323C801DF91CF911F910F91FF907D
:10436000EF90DF90CF900895CF93DF931F92CDB75A
:10437000DEB7698320912A042223D1F020912B04F7
:10438000203240F021E030E0FC013383228380E0E2
:1043900090E015C080912C04E82FF0E0E35DFB4F26
:1043A000998190838F5F80932C0480932B0405C0A8
:1043B00061E0CE0101960E94A32381E090E00F907E
:1043C000DF91CF910895FC011382128288EE93E071
:1043D000A0E0B0E084839583A683B78384EE92E067
:1043E00091838083089510924F0410924E0410928E
:1043F0002C0410922B040C94C222CF93DF93EC0177
:10440000862F0E94ED2288E791E20E94D02384E566
:1044100091E20E94CB23CE01DF91CF910C94F32146
:104420000C94FD210C94E022CB01BA010C94F122F2
:1044300081E080932A0460934D0410922C04109222
:104440002B0408950C9418220F93062F21E040911D
:104450002B046DE274E080914D040E944D23109274
:104460002C0410922B0410922A040F9108954F925D
:104470005F926F927F92AF92BF92CF92EF92FF9234
:104480000F931F93CF93DF935C01F62ED42F280157
:104490003901EE2021F10E941822CE2DC43008F0FF
:1044A000C3E0C150C0F0D501ED91FC91B8E0CB9FC5
:1044B000C0011124A301920104C056954795379578
:1044C00027958A95D2F7CA01B9010190F081E02DB4
:1044D000C5010995E6CF60E0C5010E9424224D2F59
:1044E000D13208F040E22C2D60E574E08F2D0E945F
:1044F000052310924F0480934E04DF91CF911F91BA
:104500000F91FF90EF90CF90BF90AF907F906F9002
:104510005F904F900895CF92EF920F931F93C22E0A
:10452000E12C00E010E098010E9437221F910F91CA
:10453000EF90CF90089521E00C948B2221E00C9411
:104540008B220C948B2261E00C942422709327041C
:1045500060932604089570932904609328040895B5
:104560000E94CC2D0E94CC2D089580E090E008950B
:10457000089508950C94792B0C94792B0C940E2C9F
:104580000C940E2C1092DD0481E08093DB041092D9
:10459000DA0461E082E10E94FB2661E083E10E948F
:1045A000FB26E9EBF0E080818E7F808380818D7F28
:1045B000808388E48093B80085E48093BC000895EC
:1045C000ECEBF0E080818A7B808360E082E10E94F6
:1045D000FB2660E083E10C94FB26880F8093BA00F1
:1045E00008959B01AC0160E074E284EF90E00E94CA
:1045F0009E28DA01C9014097A109B109B695A7958E
:10460000979587958093B8000895413208F043C08C
:104610009091DD049111FCCF91E09093DD04209303
:10462000DB042FEF209370041092B504240F209325
:10463000B4049093DC049091DC04880F892B809360
:10464000DC048091DA04813061F41092DA04809104
:10465000DC048093BB008091BC0083FDF8CF85EC27
:1046600001C085EE8093BC008091DD048130E1F3D0
:104670008091B504841710F44091B50426EB34E022
:10468000FB01D9018A2F821B841718F48D91819325
:10469000F9CF842F089580E008950F93413208F0F8
:1046A0004AC09091DD049111FCCF32E03093DD04DB
:1046B0000093DB043FEF309370041092B5044093F5
:1046C000B404FB0166EB74E0DB013A2F361B3417B0
:1046D00018F431913D93F9CF1092DC043091DC0451
:1046E000880F832B8093DC048091DA04813061F49D
:1046F0001092DA048091DC048093BB008091BC00AE
:1047000083FDF8CF85EC01C085EE8093BC002223A9
:1047100021F08091DD048230D1F3809170048F3FCD
:1047200079F080917004803241F080917004803380
:1047300031F094E005C091E003C092E001C093E045
:10474000892F0F91089540919204262F30E0240F75
:10475000311D21323105DCF42091DD042430C9F40F
:10476000FC0180E090E0861758F43091920421918A
:10477000DC01AC56BB4FA30FB11D2C930196F3CFB8
:1047800080919204680F6093920480E0089581E024
:10479000089582E008959093D7048093D6040895F5
:1047A0009093D9048093D8040895882311F085EC60
:1047B00001C085E88093BC00089585ED8093BC001E
:1047C0008091BC0084FDFCCF1092DD04089585EC3F
:1047D0008093BC001092DD0408951F920F920FB6D3
:1047E0000F9211242F933F934F935F936F937F9377
:1047F0008F939F93AF93BF93EF93FF938091B900F3
:10480000887F803609F49EC078F5883209F45DC04F
:1048100090F4803109F456C038F4882309F4F5C0C7
:10482000883009F44FC0F5C0883109F44EC0803299
:1048300009F45FC0EEC0803409F46AC058F48033D4
:1048400009F457C0883309F0E4C0809370040E94D3
:10485000E723DFC0803509F44FC0883509F45DC017
:10486000883409F0D6C0D3C0883909F4C4C0A8F48C
:10487000883709F467C038F4883609F463C0803794
:1048800009F460C0C6C0883809F4B5C0803909F49D
:104890005FC0803809F0BDC05BC0803B09F483C0B5
:1048A00038F4803A09F466C0883A09F47CC0B1C093
:1048B000803C09F4A4C0883C09F4A1C0883B09F4F9
:1048C00087C0A7C08091DC0410C09091B50480918E
:1048D000B404981770F5E091B50481E08E0F8093D1
:1048E000B504F0E0EA54FB4F80818093BB0085EC77
:1048F00083C0809370048BC0E091B50481E08E0F7B
:104900008093B5048091BB00F0E0EA54FB4F8083B4
:104910009091B5048091B4046BC0E091B50481E03E
:104920008E0F8093B5048091BB00F0E0EA54FB4FFA
:1049300080838091DB0481116AC081E08093DA0476
:1049400084EA5EC083E08093DD0410927104CFCFCF
:1049500080917104803208F04EC0E091710481E0D2
:104960008E0F809371048091BB00F0E0EE58FB4FF6
:104970008083BDCF0E94E72380917104803230F4A0
:10498000E0917104F0E0EE58FB4F108260917104E9
:1049900070E0E091D604F091D70482E794E00995A5
:1049A0001092710436C084E08093DD041092930469
:1049B00010929204E091D804F091D9040995809165
:1049C0009204811105C081E08093920410929404B6
:1049D000E091930481E08E0F80939304F0E0EC5615
:1049E000FB4F80818093BB0090919304809192044F
:1049F000981708F47CCF85E88093BC000AC085EC4A
:104A00008093BC001092DD0404C0109270040E94D8
:104A1000DD23FF91EF91BF91AF919F918F917F9196
:104A20006F915F914F913F912F910F900FBE0F901B
:104A30001F9018951F920F920FB60F9211242F936B
:104A40003F938F939F93AF93BF938091DE04909198
:104A5000DF04A091E004B091E1043091E60423E08A
:104A6000230F2D3720F40196A11DB11D05C026E8A6
:104A7000230F0296A11DB11D2093E6048093DE044E
:104A80009093DF04A093E004B093E1048091E204EA
:104A90009091E304A091E404B091E5040196A11D76
:104AA000B11D8093E2049093E304A093E404B093D7
:104AB000E504BF91AF919F918F913F912F910F90FE
:104AC0000FBE0F901F9018952FB7F8946091DE04D9
:104AD0007091DF048091E0049091E1042FBF08956C
:104AE0003FB7F8948091E2049091E304A091E4042C
:104AF000B091E50426B5A89B05C02F3F19F001969B
:104B0000A11DB11D3FBFBA2FA92F982F8827820F53
:104B1000911DA11DB11DBC01CD0142E0660F771FA3
:104B2000881F991F4A95D1F708958F929F92AF924F
:104B3000BF92CF92DF92EF92FF926B017C010E94B5
:104B400070254B015C01C114D104E104F10401F1B1
:104B50000E94B4220E947025DC01CB0188199909BA
:104B6000AA09BB09883E9340A105B10560F321E085
:104B7000C21AD108E108F10888EE880E83E0981E79
:104B8000A11CB11CC114D104E104F10419F7DBCF5D
:104B9000FF90EF90DF90CF90BF90AF909F908F905D
:104BA00008958230910538F0880F991F880F991F5A
:104BB00005970197F1F70895789484B5826084BDD4
:104BC00084B5816084BD85B5826085BD85B5816011
:104BD00085BDEEE6F0E0808181608083E1E8F0E071
:104BE0001082808182608083808181608083E0E8A0
:104BF000F0E0808181608083E1EBF0E0808184607F
:104C00008083E0EBF0E0808181608083EAE7F0E080
:104C100080818460808380818260808380818160E4
:104C200080838081806880831092C1000895809382
:104C3000800108958E3008F08E5087702091800199
:104C400090E4299F90011124822B80937C00809115
:104C50007A00806480937A0080917A0086FDFCCF90
:104C6000809178002091790090E0922B08951F9315
:104C7000CF93DF93182FEB0161E00E94BF262097AE
:104C800011F460E004C0CF3FD10539F461E0812F19
:104C9000DF91CF911F910C94FB26E12FF0E0E759B3
:104CA000FF4FE491E330F9F048F4E130B9F0E2303D
:104CB000A1F584B5806284BDC8BD34C0E730E9F099
:104CC000E83019F1E43049F58091800080628093EA
:104CD0008000D0938B00C0938A0024C084B5806884
:104CE00084BDC7BD1FC08091800080688093800014
:104CF000D0938900C093880015C08091B00080686F
:104D00008093B000C093B3000DC08091B00080626A
:104D10008093B000C093B40005C0C038D1050CF03A
:104D2000B5CFAFCFDF91CF911F910895833081F040
:104D300028F4813099F08230A1F008958730A9F0ED
:104D40008830B9F08430D1F4809180008F7D03C029
:104D5000809180008F7780938000089584B58F774D
:104D600002C084B58F7D84BD08958091B0008F7797
:104D700003C08091B0008F7D8093B0000895CF93E1
:104D8000DF9390E0FC01E358FF4F2491FC01EF56C4
:104D9000FF4F8491882361F190E0880F991FFC01F7
:104DA000E754FF4FC591D491FC01E155FF4FA59108
:104DB000B491611109C09FB7F8948881209582232E
:104DC0008883EC912E230BC0623061F49FB7F89476
:104DD0003881822F809583238883EC912E2B2C930E
:104DE0009FBF06C08FB7F894E8812E2B28838FBF12
:104DF000DF91CF9108951F93CF93DF93282F30E059
:104E0000F901E759FF4F8491F901E358FF4FD4911D
:104E1000F901EF56FF4FC491CC23C9F0162F811131
:104E20000E949626EC2FF0E0EE0FFF1FE155FF4F9A
:104E3000A591B4918FB7F894111105C09C91ED2FF5
:104E4000E095E92302C0EC91ED2BEC938FBFDF914D
:104E5000CF911F910895CF93DF93282F30E0F90170
:104E6000E759FF4F8491F901E358FF4FD491F901BD
:104E7000EF56FF4FC491CC2391F081110E949626EA
:104E8000EC2FF0E0EE0FFF1FEB55FF4FA591B49113
:104E9000EC91ED2381E090E021F480E002C080E01D
:104EA00090E0DF91CF910895CF92DF92EF92FF9241
:104EB0000F931F93E82FF92F05C001501109210905
:104EC000310961F1908196239417B9F305C001501F
:104ED00011092109310911F1908196239413F7CF1B
:104EE000C12CD12CE12CF12C0AC08FEFC81AD80AA2
:104EF000E80AF80A0C151D052E053F0579F080819A
:104F00008623841791F36C2D7D2D8E2D9F2D1F915F
:104F10000F91FF90EF90DF90CF90089560E070E0E8
:104F200080E090E01F910F91FF90EF90DF90CF9085
:104F30000895CF92DF92EF92FF920F931F93CF933A
:104F4000DF93F82ED62FE42E07E010E0C0E087E0D4
:104F5000C82ED12C61E08D2F0E94FB268F2DE110F1
:104F60000AC00E942B279601201B310B01C0880F1D
:104F70002A95EAF707C00E942B27002E01C0880F50
:104F80000A94EAF7C82B60E08D2F0E94FB2601509F
:104F9000110900F78C2FDF91CF911F910F91FF9096
:104FA000EF90DF90CF900895BF92CF92DF92EF9273
:104FB000FF920F931F93CF93DF93C82ED62EB42E5C
:104FC000C7E0D0E0022F10E087E0E82EF12CB1100E
:104FD00005C0C7018C1B9D0B980102C098018C2F46
:104FE00002C0359527958A95E2F7B9016170772758
:104FF0008C2D0E94FB2661E08D2D0E94FB2660E037
:105000008D2D0E94FB26219710F7DF91CF911F91E4
:105010000F91FF90EF90DF90CF90BF90089580E0C8
:1050200090E008950895E2EFF2E01382128288EE94
:1050300093E0A0E0B0E084839583A683B7838FE8F4
:1050400091E09183808385EC90E09587848784EC60
:1050500090E09787868780EC90E0918B808B81EC45
:1050600090E0938B828B82EC90E0958B848B86EC26
:1050700090E0978B868B118E128E138E148E08956E
:10508000E8EDF3E08FEA91E091838083128213824E
:1050900014821582089562E070E08EE391E00E9430
:1050A000F70864E070E081E091E00C94F7088EBDB1
:1050B00000000DB407FEFDCF8EB508956115710592
:1050C00079F0FB0101900020E9F73197AF01461B11
:1050D000570BDC01ED91FC910280F381E02D0994E6
:1050E00080E090E008950C94AA2E0C94C02E0C94AD
:1050F0001C2F0C94EF2E8AE194E00C94E3210E9483
:10510000DC250E94B8220E94C609C7E6D1E00E94B1
:10511000570A2097E1F30E946701F9CFDB018F93D3
:105120009F930E94DF28BF91AF91A29F800D911D98
:10513000A39F900DB29F900D11240895A1E21A2E05
:10514000AA1BBB1BFD010DC0AA1FBB1FEE1FFF1F2B
:10515000A217B307E407F50720F0A21BB30BE40B7B
:10516000F50B661F771F881F991F1A9469F76095C2
:105170007095809590959B01AC01BD01CF0108957C
:10518000052E97FB1EF400940E94D72857FD07D0E8
:105190000E949E2807FC03D04EF40C94D72850950B
:1051A0004095309521953F4F4F4F5F4F0895909513
:1051B0008095709561957F4F8F4F9F4F08950E9406
:1051C0000E29A59F900DB49F900DA49F800D911D59
:1051D0001124089597FB10F8169400080F930830D7
:1051E00098F00850232F342F452F562F672F782FF4
:1051F000892F902DF4CF059497958795779567958E
:1052000057954795379527950A95AAF70F910895D1
:10521000EE0FFF1F0590F491E02D0994A29FB001BD
:10522000B39FC001A39F700D811D1124911DB29FDA
:10523000700D811D1124911D08955058BB27AA2778
:105240000E9435290C94A82A0E949A2A38F00E94BC
:10525000A12A20F039F49F3F19F426F40C94972AE0
:105260000EF4E095E7FB0C94912AE92F0E94B92AED
:1052700058F3BA17620773078407950720F079F48B
:10528000A6F50C94DB2A0EF4E0950B2EBA2FA02D78
:105290000B01B90190010C01CA01A0011124FF27E3
:1052A000591B99F0593F50F4503E68F11A16F040DE
:1052B000A22F232F342F4427585FF3CF46953795DD
:1052C0002795A795F0405395C9F77EF41F16BA0BA2
:1052D000620B730B840BBAF09150A1F0FF0FBB1F50
:1052E000661F771F881FC2F70EC0BA0F621F731F99
:1052F000841F48F4879577956795B795F7959E3FF6
:1053000008F0B0CF9395880F08F09927EE0F979586
:10531000879508950E946D2A08F481E008950E94FF
:10532000A3290C94A82A0E94A12A58F00E949A2A24
:1053300040F029F45F3F29F00C94912A51110C940C
:10534000DC2A0C94972A0E94B92A68F39923B1F3B6
:10535000552391F3951B550BBB27AA27621773079B
:10536000840738F09F5F5F4F220F331F441FAA1F2F
:10537000A9F335D00E2E3AF0E0E832D091505040EB
:10538000E695001CCAF72BD0FE2F29D0660F771F99
:10539000881FBB1F261737074807AB07B0E809F07F
:1053A000BB0B802DBF01FF2793585F4F3AF09E3F04
:1053B000510578F00C94912A0C94DC2A5F3FE4F3B9
:1053C000983ED4F3869577956795B795F7959F5F47
:1053D000C9F7880F911D9695879597F90895E1E093
:1053E000660F771F881FBB1F621773078407BA07F2
:1053F00020F0621B730B840BBA0BEE1F88F7E0954D
:1054000008950E94C12A88F09F5798F0B92F9927D4
:10541000B751B0F0E1F0660F771F881F991F1AF09F
:10542000BA95C9F714C0B13091F00E94DB2AB1E0FF
:1054300008950C94DB2A672F782F8827B85F39F0FE
:10544000B93FCCF3869577956795B395D9F73EF438
:1054500090958095709561957F4F8F4F9F4F0895E0
:10546000E89409C097FB3EF49095809570956195FE
:105470007F4F8F4F9F4F9923A9F0F92F96E9BB27B4
:105480009395F695879577956795B795F111F8CF30
:10549000FAF4BB0F11F460FF1BC06F5F7F4F8F4F9B
:1054A0009F4F16C0882311F096E911C0772321F091
:1054B0009EE8872F762F05C0662371F096E8862F29
:1054C00070E060E02AF09A95660F771F881FDAF780
:1054D000880F9695879597F90895990F0008550FAD
:1054E000AA0BE0E8FEEF16161706E807F907C0F06A
:1054F00012161306E407F50798F0621B730B840B72
:10550000950B39F40A2661F0232B242B252B21F44B
:1055100008950A2609F4A140A6958FEF811D811DEB
:10552000089597F99F6780E870E060E008959FEF25
:1055300080EC089500240A9416161706180609062A
:10554000089500240A9412161306140605060895F9
:10555000092E0394000C11F4882352F0BB0F40F481
:10556000BF2B11F460FF04C06F5F7F4F8F4F9F4FC1
:10557000089557FD9058440F551F59F05F3F71F043
:105580004795880F97FB991F61F09F3F79F08795AA
:105590000895121613061406551FF2CF4695F1DF33
:1055A00008C0161617061806991FF1CF86957105C3
:1055B000610508940895E894BB2766277727CB01F7
:1055C00097F908950E946D2A08F48FEF08950E94BC
:1055D000FA2A0C94A82A0E949A2A38F00E94A12A3A
:1055E00020F0952311F00C94912A0C94972A112401
:1055F0000C94DC2A0E94B92A70F3959FC1F3950F91
:1056000050E0551F629FF001729FBB27F00DB11D46
:10561000639FAA27F00DB11DAA1F649F6627B00DD6
:10562000A11D661F829F2227B00DA11D621F739FBF
:10563000B00DA11D621F839FA00D611D221F749FCD
:105640003327A00D611D231F849F600D211D822F14
:10565000762F6A2F11249F5750409AF0F1F088233B
:105660004AF0EE0FFF1FBB1F661F771F881F915068
:105670005040A9F79E3F510580F00C94912A0C945C
:10568000DC2A5F3FE4F3983ED4F3869577956795DF
:10569000B795F795E7959F5FC1F7FE2B880F911D92
:1056A0009695879597F908950E946D2A880B990B16
:1056B0000895EF920F931F93CF93DF93E80147FD77
:1056C00002C034E001C034E1E42F440FFF0BF7FFC8
:1056D00003C0F195E195F109E32E022F2E2FAE01C3
:1056E0000E94412FCE01DF91CF911F910F91EF903A
:1056F0000895CF93DF938230910510F482E090E01B
:10570000E091E904F091EA0420E030E0C0E0D0E06C
:10571000309711F14081518148175907C0F048175F
:10572000590761F482819381209719F09B838A83C2
:105730002BC09093EA048093E90426C0211531051B
:1057400019F04217530718F49A01BE01DF01EF0167
:105750000280F381E02DDCCF2115310509F1281BF2
:10576000390B2430310590F412968D919C9113974A
:105770006115710521F0FB019383828304C090932E
:10578000EA048093E904FD01329644C0FD01E20F72
:10579000F31F81939193225031092D933C933AC08A
:1057A0002091E7043091E804232B41F420918301F8
:1057B000309184013093E8042093E7042091810123
:1057C000309182012115310541F42DB73EB740914A
:1057D000850150918601241B350BE091E704F0917F
:1057E000E804E217F307A0F42E1B3F0B2817390734
:1057F00078F0AC014E5F5F4F2417350748F04E0F2D
:105800005F1F5093E8044093E7048193919302C093
:10581000E0E0F0E0CF01DF91CF9108950F931F9367
:10582000CF93DF93009709F48CC0FC013297138269
:1058300012820091E9041091EA040115110581F426
:1058400020813181820F931F2091E7043091E80479
:105850002817390779F5F093E804E093E70471C05D
:10586000D80140E050E0AE17BF0750F412962D91DA
:105870003C911397AD012115310509F1D901F3CF01
:105880009D01DA013383228360817181860F971F26
:105890008217930769F4EC0128813981260F371F9D
:1058A0002E5F3F4F318320838A819B819383828344
:1058B000452B29F4F093EA04E093E90442C01396DF
:1058C000FC93EE931297ED01499159919E01240F9B
:1058D000351FE217F30771F480819181840F951FC2
:1058E000029611969C938E938281938113969C933A
:1058F0008E931297E0E0F0E0D80112968D919C9182
:105900001397009719F0F8018C01F6CF8D919C91B7
:1059100098012E5F3F4F820F931F2091E704309133
:10592000E8042817390769F4309729F41092EA043B
:105930001092E90402C0138212821093E8040093CB
:10594000E704DF91CF911F910F9108958F929F925D
:10595000AF92BF92CF92DF92EF92FF92CF93DF93FD
:10596000EC01688179818A819B81611571058105CE
:10597000910521F464E279ED8BE597E02DE133EFB9
:1059800041E050E00E94C02849015A019B01AC014E
:10599000A7EAB1E40E94DF286B017C01ACEEB4EF12
:1059A000A50194010E943233DC01CB018C0D9D1DB9
:1059B000AE1DBF1DB7FF03C00197A109B048888382
:1059C0009983AA83BB83BC01CD019F77DF91CF91DF
:1059D000FF90EF90DF90CF90BF90AF909F908F900F
:1059E00008950E94A62C089587E891E00E94A62CB5
:1059F0000895609387017093880180938901909343
:105A00008A010895A0E0B0E0E8E0FDE20C943B33A9
:105A1000EC01009721F4CB010E94792BB8C0FC0166
:105A2000E60FF71F9C0122503109E217F30708F433
:105A3000ACC0D9010D911C91119706171707B0F052
:105A40000530110508F49FC0C80104978617970711
:105A500008F499C002501109061B170B019311930A
:105A60006D937C93CF010E940E2C8DC05B01A01A18
:105A7000B10A4C01800E911EA091E904B091EA0494
:105A800040E050E0E12CF12C109709F44AC0A81531
:105A9000B905D1F56D907C901197630182E0C80E35
:105AA000D11CCA14DB0480F1A3014A195B096A0105
:105AB00082E0C80ED11C1296BC9012971396AC913E
:105AC000B5E0CB16D10440F0B282A383518340836A
:105AD000D9016D937C930AC00E5F1F4FC301800FE5
